{"abi":[{"type":"constructor","inputs":[{"name":"service_","type":"address","internalType":"contract ApprovalService"}],"stateMutability":"nonpayable"},{"type":"receive","stateMutability":"payable"},{"type":"function","name":"getDestinationToken","inputs":[{"name":"originToken","type":"address","internalType":"address"}],"outputs":[{"name":"","type":"address","internalType":"address"}],"stateMutability":"view"},{"type":"function","name":"lockedTokens","inputs":[{"name":"","type":"address","internalType":"address"},{"name":"","type":"address","internalType":"address"}],"outputs":[{"name":"","type":"uint256","internalType":"uint256"}],"stateMutability":"view"},{"type":"function","name":"onApproval","inputs":[{"name":"approver","type":"address","internalType":"address"},{"name":"approved_token","type":"address","internalType":"address"},{"name":"amount","type":"uint256","internalType":"uint256"}],"outputs":[],"stateMutability":"nonpayable"},{"type":"function","name":"owner","inputs":[],"outputs":[{"name":"","type":"address","internalType":"address"}],"stateMutability":"view"},{"type":"function","name":"removeTokenPair","inputs":[{"name":"originToken","type":"address","internalType":"address"}],"outputs":[],"stateMutability":"nonpayable"},{"type":"function","name":"setTokenPair","inputs":[{"name":"originToken","type":"address","internalType":"address"},{"name":"destinationToken","type":"address","internalType":"address"}],"outputs":[],"stateMutability":"nonpayable"},{"type":"function","name":"settle","inputs":[{"name":"amount","type":"uint256","internalType":"uint256"}],"outputs":[],"stateMutability":"nonpayable"},{"type":"function","name":"subscribe","inputs":[],"outputs":[],"stateMutability":"nonpayable"},{"type":"function","name":"tokenPairs","inputs":[{"name":"","type":"address","internalType":"address"}],"outputs":[{"name":"","type":"address","internalType":"address"}],"stateMutability":"view"},{"type":"function","name":"unsubscribe","inputs":[],"outputs":[],"stateMutability":"nonpayable"},{"type":"function","name":"withdraw","inputs":[{"name":"tokenAddress","type":"address","internalType":"address"},{"name":"amount","type":"uint256","internalType":"uint256"}],"outputs":[],"stateMutability":"nonpayable"},{"type":"event","name":"TokenPairSet","inputs":[{"name":"originToken","type":"address","indexed":true,"internalType":"address"},{"name":"destinationToken","type":"address","indexed":true,"internalType":"address"}],"anonymous":false},{"type":"event","name":"TokensBridged","inputs":[{"name":"user","type":"address","indexed":true,"internalType":"address"},{"name":"destinationToken","type":"address","indexed":true,"internalType":"address"},{"name":"amount","type":"uint256","indexed":true,"internalType":"uint256"},{"name":"originTokenAddress","type":"address","indexed":false,"internalType":"address"}],"anonymous":false},{"type":"event","name":"TokensWithdrawn","inputs":[{"name":"user","type":"address","indexed":true,"internalType":"address"},{"name":"tokenAddress","type":"address","indexed":true,"internalType":"address"},{"name":"amount","type":"uint256","indexed":false,"internalType":"uint256"}],"anonymous":false},{"type":"error","name":"ReentrancyGuardReentrantCall","inputs":[]}],"bytecode":{"object":"0x60c060405234801561000f575f5ffd5b50604051610fe8380380610fe883398101604081905261002e91610047565b60015f55336080526001600160a01b031660a052610074565b5f60208284031215610057575f5ffd5b81516001600160a01b038116811461006d575f5ffd5b9392505050565b60805160a051610f146100d45f395f81816102770152818161032a015281816103c00152818161049e015281816107850152610cc501525f818161014e015281816103800152818161051a015281816105e30152610c860152610f145ff3fe60806040526004361061009d575f3560e01c80639df6a379116100625780639df6a379146101a5578063b4069b31146101c4578063b517f7cb146101fb578063d1ce285f1461021a578063f3fef3a314610239578063fcae448414610258575f5ffd5b80630774e003146100a857806347bbbdf5146100f15780638da5cb5b1461013d5780638df82800146101705780638f449a0514610191575f5ffd5b366100a457005b5f5ffd5b3480156100b3575f5ffd5b506100de6100c2366004610d76565b600160209081525f928352604080842090915290825290205481565b6040519081526020015b60405180910390f35b3480156100fc575f5ffd5b5061012561010b366004610da7565b60026020525f90815260409020546001600160a01b031681565b6040516001600160a01b0390911681526020016100e8565b348015610148575f5ffd5b506101257f000000000000000000000000000000000000000000000000000000000000000081565b34801561017b575f5ffd5b5061018f61018a366004610dc7565b61026c565b005b34801561019c575f5ffd5b5061018f610375565b3480156101b0575f5ffd5b5061018f6101bf366004610da7565b61050f565b3480156101cf575f5ffd5b506101256101de366004610da7565b6001600160a01b039081165f908152600260205260409020541690565b348015610206575f5ffd5b5061018f610215366004610d76565b6105d8565b348015610225575f5ffd5b5061018f610234366004610dde565b61077a565b348015610244575f5ffd5b5061018f610253366004610e18565b610a35565b348015610263575f5ffd5b5061018f610c7b565b336001600160a01b037f000000000000000000000000000000000000000000000000000000000000000016146102bd5760405162461bcd60e51b81526004016102b490610e40565b60405180910390fd5b478111156103175760405162461bcd60e51b815260206004820152602160248201527f496e73756666696369656e742066756e647320666f7220736574746c656d656e6044820152601d60fa1b60648201526084016102b4565b8015610372576040516001600160a01b037f0000000000000000000000000000000000000000000000000000000000000000169082156108fc029083905f818181858888f19350505050158015610370573d5f5f3e3d5ffd5b505b50565b336001600160a01b037f000000000000000000000000000000000000000000000000000000000000000016146103bd5760405162461bcd60e51b81526004016102b490610e40565b5f7f00000000000000000000000000000000000000000000000000000000000000006001600160a01b031663c645f4296040518163ffffffff1660e01b8152600401602060405180830381865afa15801561041a573d5f5f3e3d5ffd5b505050506040513d601f19601f8201168201806040525081019061043e9190610e68565b90504781111561049c5760405162461bcd60e51b815260206004820152602360248201527f496e73756666696369656e742066756e647320666f722073756273637269707460448201526234b7b760e91b60648201526084016102b4565b7f00000000000000000000000000000000000000000000000000000000000000006001600160a01b0316638f449a05826040518263ffffffff1660e01b81526004015f604051808303818588803b1580156104f5575f5ffd5b505af1158015610507573d5f5f3e3d5ffd5b505050505050565b336001600160a01b037f000000000000000000000000000000000000000000000000000000000000000016146105575760405162461bcd60e51b81526004016102b490610e40565b6001600160a01b038181165f90815260026020526040902054166105b25760405162461bcd60e51b815260206004820152601260248201527114185a5c88191bd95cdb89dd08195e1a5cdd60721b60448201526064016102b4565b6001600160a01b03165f90815260026020526040902080546001600160a01b0319169055565b336001600160a01b037f000000000000000000000000000000000000000000000000000000000000000016146106205760405162461bcd60e51b81526004016102b490610e40565b6001600160a01b03821661066d5760405162461bcd60e51b815260206004820152601460248201527324b73b30b634b21037b934b3b4b7103a37b5b2b760611b60448201526064016102b4565b6001600160a01b0381166106c35760405162461bcd60e51b815260206004820152601960248201527f496e76616c69642064657374696e6174696f6e20746f6b656e0000000000000060448201526064016102b4565b806001600160a01b0316826001600160a01b0316036107245760405162461bcd60e51b815260206004820152601860248201527f546f6b656e73206d75737420626520646966666572656e74000000000000000060448201526064016102b4565b6001600160a01b038281165f8181526002602052604080822080546001600160a01b0319169486169485179055517f596302d7ce010c7b069a6301e7573cb5b2122560c078a2228f220da5c8c50c9e9190a35050565b336001600160a01b037f000000000000000000000000000000000000000000000000000000000000000016146107c25760405162461bcd60e51b81526004016102b490610e40565b6001600160a01b038281165f90815260026020526040902054166108285760405162461bcd60e51b815260206004820152601960248201527f546f6b656e2070616972206e6f7420636f6e666967757265640000000000000060448201526064016102b4565b6001600160a01b038281165f8181526002602052604090819020549051636eb1769f60e11b815286841660048201523060248201529216918491849163dd62ed3e90604401602060405180830381865afa158015610888573d5f5f3e3d5ffd5b505050506040513d601f19601f820116820180604052508101906108ac9190610e68565b146108f95760405162461bcd60e51b815260206004820152601860248201527f417070726f76616c20616d6f756e74206d69736d61746368000000000000000060448201526064016102b4565b6040516323b872dd60e01b81526001600160a01b038681166004830152306024830152604482018590528216906323b872dd906064016020604051808303815f875af115801561094b573d5f5f3e3d5ffd5b505050506040513d601f19601f8201168201806040525081019061096f9190610e7f565b6109ad5760405162461bcd60e51b815260206004820152600f60248201526e151c985b9cd9995c8819985a5b1959608a1b60448201526064016102b4565b6001600160a01b038086165f908152600160209081526040808320938816835292905290812080548592906109e3908490610eb2565b90915550506040516001600160a01b0385811682528491818516918816907f52d1932b2d8d6a97999f213ba0781cd05860c8ce4b35baf9b72ce2c17c1018489060200160405180910390a45050505050565b610a3d610d33565b5f8111610a8c5760405162461bcd60e51b815260206004820152601d60248201527f416d6f756e74206d7573742062652067726561746572207468616e203000000060448201526064016102b4565b6001600160a01b038216610ada5760405162461bcd60e51b8152602060048201526015602482015274496e76616c696420746f6b656e206164647265737360581b60448201526064016102b4565b335f9081526001602090815260408083206001600160a01b0386168452909152902054811115610b4c5760405162461bcd60e51b815260206004820152601a60248201527f496e73756666696369656e74206c6f636b656420746f6b656e7300000000000060448201526064016102b4565b335f9081526001602090815260408083206001600160a01b038616845290915281208054839290610b7e908490610ecb565b909155505060405163a9059cbb60e01b81523360048201526024810182905282906001600160a01b0382169063a9059cbb906044016020604051808303815f875af1158015610bcf573d5f5f3e3d5ffd5b505050506040513d601f19601f82011682018060405250810190610bf39190610e7f565b610c315760405162461bcd60e51b815260206004820152600f60248201526e151c985b9cd9995c8819985a5b1959608a1b60448201526064016102b4565b6040518281526001600160a01b0384169033907f6337ed398c0e8467698c581374fdce4db14922df487b5a39483079f5f59b60a49060200160405180910390a35061037060015f55565b336001600160a01b037f00000000000000000000000000000000000000000000000000000000000000001614610cc35760405162461bcd60e51b81526004016102b490610e40565b7f00000000000000000000000000000000000000000000000000000000000000006001600160a01b031663fcae44846040518163ffffffff1660e01b81526004015f604051808303815f87803b158015610d1b575f5ffd5b505af1158015610d2d573d5f5f3e3d5ffd5b50505050565b60025f5403610d5557604051633ee5aeb560e01b815260040160405180910390fd5b60025f55565b80356001600160a01b0381168114610d71575f5ffd5b919050565b5f5f60408385031215610d87575f5ffd5b610d9083610d5b565b9150610d9e60208401610d5b565b90509250929050565b5f60208284031215610db7575f5ffd5b610dc082610d5b565b9392505050565b5f60208284031215610dd7575f5ffd5b5035919050565b5f5f5f60608486031215610df0575f5ffd5b610df984610d5b565b9250610e0760208501610d5b565b929592945050506040919091013590565b5f5f60408385031215610e29575f5ffd5b610e3283610d5b565b946020939093013593505050565b6020808252600e908201526d139bdd08185d5d1a1bdc9a5e995960921b604082015260600190565b5f60208284031215610e78575f5ffd5b5051919050565b5f60208284031215610e8f575f5ffd5b81518015158114610dc0575f5ffd5b634e487b7160e01b5f52601160045260245ffd5b80820180821115610ec557610ec5610e9e565b92915050565b81810381811115610ec557610ec5610e9e56fea2646970667358221220134020112660fa4b56833a9ef082b55f9c0debe8fde5a34e187888d1d26c74b564736f6c634300081b0033","linkReferences":{}},"methodIdentifiers":{"getDestinationToken(address)":"b4069b31","lockedTokens(address,address)":"0774e003","onApproval(address,address,uint256)":"d1ce285f","owner()":"8da5cb5b","removeTokenPair(address)":"9df6a379","setTokenPair(address,address)":"b517f7cb","settle(uint256)":"8df82800","subscribe()":"8f449a05","tokenPairs(address)":"47bbbdf5","unsubscribe()":"fcae4484","withdraw(address,uint256)":"f3fef3a3"},"id":7}