{"abi":[{"type":"constructor","inputs":[{"name":"callbackAddress","type":"address","internalType":"address"}],"stateMutability":"payable"},{"type":"receive","stateMutability":"payable"},{"type":"function","name":"burnTokens","inputs":[{"name":"burningToken","type":"address","internalType":"address"},{"name":"amount","type":"uint256","internalType":"uint256"}],"outputs":[],"stateMutability":"nonpayable"},{"type":"function","name":"coverDebt","inputs":[],"outputs":[],"stateMutability":"nonpayable"},{"type":"function","name":"getTotalLockedAmount","inputs":[{"name":"user","type":"address","internalType":"address"},{"name":"token","type":"address","internalType":"address"}],"outputs":[{"name":"","type":"uint256","internalType":"uint256"}],"stateMutability":"view"},{"type":"function","name":"getUserRecords","inputs":[{"name":"user","type":"address","internalType":"address"}],"outputs":[{"name":"","type":"tuple[]","internalType":"struct RecordKeeper.BridgeRecord[]","components":[{"name":"user","type":"address","internalType":"address"},{"name":"originToken","type":"address","internalType":"address"},{"name":"destinationToken","type":"address","internalType":"address"},{"name":"amountLocked","type":"uint256","internalType":"uint256"},{"name":"amountBurned","type":"uint256","internalType":"uint256"},{"name":"isActive","type":"bool","internalType":"bool"}]}],"stateMutability":"view"},{"type":"function","name":"pay","inputs":[{"name":"amount","type":"uint256","internalType":"uint256"}],"outputs":[],"stateMutability":"nonpayable"},{"type":"function","name":"totalLockedAmount","inputs":[{"name":"","type":"address","internalType":"address"},{"name":"","type":"address","internalType":"address"}],"outputs":[{"name":"","type":"uint256","internalType":"uint256"}],"stateMutability":"view"},{"type":"function","name":"updateRecord","inputs":[{"name":"","type":"address","internalType":"address"},{"name":"user","type":"address","internalType":"address"},{"name":"originToken","type":"address","internalType":"address"},{"name":"destinationToken","type":"address","internalType":"address"},{"name":"amountLocked","type":"uint256","internalType":"uint256"}],"outputs":[],"stateMutability":"nonpayable"},{"type":"function","name":"userRecords","inputs":[{"name":"","type":"address","internalType":"address"},{"name":"","type":"uint256","internalType":"uint256"}],"outputs":[{"name":"user","type":"address","internalType":"address"},{"name":"originToken","type":"address","internalType":"address"},{"name":"destinationToken","type":"address","internalType":"address"},{"name":"amountLocked","type":"uint256","internalType":"uint256"},{"name":"amountBurned","type":"uint256","internalType":"uint256"},{"name":"isActive","type":"bool","internalType":"bool"}],"stateMutability":"view"},{"type":"function","name":"validateTransfer","inputs":[{"name":"user","type":"address","internalType":"address"},{"name":"destinationToken","type":"address","internalType":"address"},{"name":"amount","type":"uint256","internalType":"uint256"}],"outputs":[{"name":"","type":"bool","internalType":"bool"}],"stateMutability":"view"},{"type":"event","name":"RecordUpdated","inputs":[{"name":"user","type":"address","indexed":true,"internalType":"address"},{"name":"originToken","type":"address","indexed":true,"internalType":"address"},{"name":"destinationToken","type":"address","indexed":true,"internalType":"address"},{"name":"amountLocked","type":"uint256","indexed":false,"internalType":"uint256"}],"anonymous":false},{"type":"event","name":"TokensBurned","inputs":[{"name":"user","type":"address","indexed":true,"internalType":"address"},{"name":"originToken","type":"address","indexed":true,"internalType":"address"},{"name":"amount","type":"uint256","indexed":true,"internalType":"uint256"}],"anonymous":false}],"bytecode":{"object":"0x608060405260405161112d38038061112d8339810160408190526020916067565b600280546001600160a01b031990811633179091555f80546001600160a01b038416921682178155908152600160208190526040909120805460ff19169091179055506092565b5f602082840312156076575f5ffd5b81516001600160a01b0381168114608b575f5ffd5b9392505050565b61108e8061009f5f395ff3fe608060405260043610610087575f3560e01c80637a90b990116100575780637a90b9901461014757806393c15f461461015b578063c290d6911461017a578063c6946a1214610199578063e85d28b9146101c8575f5ffd5b80630213837c146100925780630d1118ce146100db57806347f3cc60146100fc57806351096b021461011b575f5ffd5b3661008e57005b5f5ffd5b34801561009d575f5ffd5b506100c86100ac366004610dfd565b600460209081525f928352604080842090915290825290205481565b6040519081526020015b60405180910390f35b3480156100e6575f5ffd5b506100fa6100f5366004610e2e565b610225565b005b348015610107575f5ffd5b506100c8610116366004610dfd565b61061a565b348015610126575f5ffd5b5061013a610135366004610e56565b610646565b6040516100d29190610e6f565b348015610152575f5ffd5b506100fa610704565b348015610166575f5ffd5b506100fa610175366004610efd565b610789565b348015610185575f5ffd5b506100fa610194366004610f55565b6109d4565b3480156101a4575f5ffd5b506101b86101b3366004610f6c565b610a35565b60405190151581526020016100d2565b3480156101d3575f5ffd5b506101e76101e2366004610e2e565b610c86565b604080516001600160a01b039788168152958716602087015293909516928401929092526060830152608082015290151560a082015260c0016100d2565b336001600160a01b0383166102795760405162461bcd60e51b8152602060048201526015602482015274496e76616c696420746f6b656e206164647265737360581b60448201526064015b60405180910390fd5b5f82116102985760405162461bcd60e51b815260040161027090610fa6565b6001600160a01b0381165f9081526003602052604081209080805b8354811015610397578381815481106102ce576102ce610fdd565b5f91825260209091206005600690920201015460ff1680156103255750866001600160a01b031684828154811061030757610307610fdd565b5f9182526020909120600260069092020101546001600160a01b0316145b801561037e57508584828154811061033f5761033f610fdd565b905f5260205f209060060201600401546103599190611005565b84828154811061036b5761036b610fdd565b905f5260205f2090600602016003015410155b1561038f5760019250809150610397565b6001016102b3565b50816103fb5760405162461bcd60e51b815260206004820152602d60248201527f4e6f2076616c6964207265636f726420666f756e64206f7220696e737566666960448201526c6369656e742062616c616e636560981b6064820152608401610270565b604051632770a7eb60e21b81526001600160a01b03858116600483015260248201879052871690639dc29fac906044015f604051808303815f87803b158015610442575f5ffd5b505af1925050508015610453575060015b6104935760405162461bcd60e51b8152602060048201526011602482015270151bdad95b88189d5c9b8819985a5b1959607a1b6044820152606401610270565b848382815481106104a6576104a6610fdd565b905f5260205f2090600602016004015f8282546104c39190611005565b90915550506001600160a01b0384165f90815260046020526040812084548792908690859081106104f6576104f6610fdd565b5f9182526020808320600160069093020191909101546001600160a01b0316835282019290925260400181208054909190610532908490611018565b9250508190555082818154811061054b5761054b610fdd565b905f5260205f2090600602016003015483828154811061056d5761056d610fdd565b905f5260205f20906006020160040154106105b7575f83828154811061059557610595610fdd565b5f9182526020909120600690910201600501805460ff19169115159190911790555b848382815481106105ca576105ca610fdd565b5f91825260208220600160069092020101546040516001600160a01b0391821692918816917f857ac1c9e97cc66ecae5f524c9c611463ae748b85af3ca454a5ec4d7d341924d91a4505050505050565b6001600160a01b038083165f908152600460209081526040808320938516835292905220545b92915050565b6001600160a01b0381165f908152600360209081526040808320805482518185028101850190935280835260609492939192909184015b828210156106f9575f8481526020908190206040805160c0810182526006860290920180546001600160a01b03908116845260018083015482168587015260028301549091169284019290925260038101546060840152600481015460808401526005015460ff16151560a0830152908352909201910161067d565b505050509050919050565b5f80546040516326db15bb60e21b81523060048201526001600160a01b0390911690639b6c56ec90602401602060405180830381865afa15801561074a573d5f5f3e3d5ffd5b505050506040513d601f19601f8201168201806040525081019061076e919061102b565b5f54909150610786906001600160a01b031682610ce6565b50565b6001600160a01b0384166107d65760405162461bcd60e51b8152602060048201526014602482015273496e76616c69642075736572206164647265737360601b6044820152606401610270565b6001600160a01b0383166108235760405162461bcd60e51b815260206004820152601460248201527324b73b30b634b21037b934b3b4b7103a37b5b2b760611b6044820152606401610270565b6001600160a01b0382166108755760405162461bcd60e51b815260206004820152601960248201527824b73b30b634b2103232b9ba34b730ba34b7b7103a37b5b2b760391b6044820152606401610270565b5f81116108945760405162461bcd60e51b815260040161027090610fa6565b6001600160a01b038085165f908152600460209081526040808320938716835292905290812080548392906108ca908490611005565b90915550506040805160c0810182526001600160a01b038681168083528682166020808501828152888516868801818152606088018a81525f60808a01818152600160a08c018181528a84526003808a528e852080548085018255908652948a90208e516006909602018054958e166001600160a01b031996871617815598519289018054938e1693861693909317909255945160028801805491909c169316929092179099559051908401559551600483015594516005909101805491151560ff1990921691909117905594518681529394929390927f294f3292c559ab7bf7ce34b6a330a697df5691e90e595edc7c8f45a92b494a35910160405180910390a4505050505050565b335f9081526001602052604090205460ff16610a2b5760405162461bcd60e51b8152602060048201526016602482015275417574686f72697a65642073656e646572206f6e6c7960501b6044820152606401610270565b6107863382610ce6565b5f6001600160a01b038416610a835760405162461bcd60e51b8152602060048201526014602482015273496e76616c69642075736572206164647265737360601b6044820152606401610270565b6001600160a01b038316610ad55760405162461bcd60e51b815260206004820152601960248201527824b73b30b634b2103232b9ba34b730ba34b7b7103a37b5b2b760391b6044820152606401610270565b5f8211610af45760405162461bcd60e51b815260040161027090610fa6565b6001600160a01b0384165f90815260036020908152604080832080548251818502810185019093528083529192909190849084015b82821015610ba5575f8481526020908190206040805160c0810182526006860290920180546001600160a01b03908116845260018083015482168587015260028301549091169284019290925260038101546060840152600481015460808401526005015460ff16151560a08301529083529092019101610b29565b509293505f925050505b8151811015610c7957818181518110610bca57610bca610fdd565b602002602001015160a001518015610c105750846001600160a01b0316828281518110610bf957610bf9610fdd565b6020026020010151604001516001600160a01b0316145b8015610c61575083828281518110610c2a57610c2a610fdd565b602002602001015160800151610c409190611005565b828281518110610c5257610c52610fdd565b60200260200101516060015110155b15610c7157600192505050610c7f565b600101610baf565b505f9150505b9392505050565b6003602052815f5260405f208181548110610c9f575f80fd5b5f9182526020909120600690910201805460018201546002830154600384015460048501546005909501546001600160a01b03948516975092841695509216929060ff1686565b80471015610d2b5760405162461bcd60e51b8152602060048201526012602482015271496e73756666696369656e742066756e647360701b6044820152606401610270565b8015610dde57604080515f808252602082019092526001600160a01b038416908390604051610d5a9190611042565b5f6040518083038185875af1925050503d805f8114610d94576040519150601f19603f3d011682016040523d82523d5f602084013e610d99565b606091505b5050905080610ddc5760405162461bcd60e51b815260206004820152600f60248201526e151c985b9cd9995c8819985a5b1959608a1b6044820152606401610270565b505b5050565b80356001600160a01b0381168114610df8575f5ffd5b919050565b5f5f60408385031215610e0e575f5ffd5b610e1783610de2565b9150610e2560208401610de2565b90509250929050565b5f5f60408385031215610e3f575f5ffd5b610e4883610de2565b946020939093013593505050565b5f60208284031215610e66575f5ffd5b610c7f82610de2565b602080825282518282018190525f918401906040840190835b81811015610ef257835180516001600160a01b03908116855260208083015182168187015260408084015190921691860191909152606080830151908601526080808301519086015260a0918201511515918501919091529093019260c090920191600101610e88565b509095945050505050565b5f5f5f5f5f60a08688031215610f11575f5ffd5b610f1a86610de2565b9450610f2860208701610de2565b9350610f3660408701610de2565b9250610f4460608701610de2565b949793965091946080013592915050565b5f60208284031215610f65575f5ffd5b5035919050565b5f5f5f60608486031215610f7e575f5ffd5b610f8784610de2565b9250610f9560208501610de2565b929592945050506040919091013590565b6020808252601d908201527f416d6f756e74206d7573742062652067726561746572207468616e2030000000604082015260600190565b634e487b7160e01b5f52603260045260245ffd5b634e487b7160e01b5f52601160045260245ffd5b8082018082111561064057610640610ff1565b8181038181111561064057610640610ff1565b5f6020828403121561103b575f5ffd5b5051919050565b5f82518060208501845e5f92019182525091905056fea2646970667358221220541c14cf1abe89f45a5f26e2ce4e93c30b94740ecf3eaa4cb2b178391c8f056c64736f6c634300081b0033","linkReferences":{}},"methodIdentifiers":{"burnTokens(address,uint256)":"0d1118ce","coverDebt()":"7a90b990","getTotalLockedAmount(address,address)":"47f3cc60","getUserRecords(address)":"51096b02","pay(uint256)":"c290d691","totalLockedAmount(address,address)":"0213837c","updateRecord(address,address,address,address,uint256)":"93c15f46","userRecords(address,uint256)":"e85d28b9","validateTransfer(address,address,uint256)":"c6946a12"},"id":10}