{"abi":[{"type":"constructor","inputs":[{"name":"service_","type":"address","internalType":"contract ApprovalService"}],"stateMutability":"payable"},{"type":"receive","stateMutability":"payable"},{"type":"function","name":"coverDebt","inputs":[],"outputs":[],"stateMutability":"nonpayable"},{"type":"function","name":"pay","inputs":[{"name":"amount","type":"uint256","internalType":"uint256"}],"outputs":[],"stateMutability":"nonpayable"},{"type":"function","name":"react","inputs":[{"name":"log","type":"tuple","internalType":"struct IReactive.LogRecord","components":[{"name":"chain_id","type":"uint256","internalType":"uint256"},{"name":"_contract","type":"address","internalType":"address"},{"name":"topic_0","type":"uint256","internalType":"uint256"},{"name":"topic_1","type":"uint256","internalType":"uint256"},{"name":"topic_2","type":"uint256","internalType":"uint256"},{"name":"topic_3","type":"uint256","internalType":"uint256"},{"name":"data","type":"bytes","internalType":"bytes"},{"name":"block_number","type":"uint256","internalType":"uint256"},{"name":"op_code","type":"uint256","internalType":"uint256"},{"name":"block_hash","type":"uint256","internalType":"uint256"},{"name":"tx_hash","type":"uint256","internalType":"uint256"},{"name":"log_index","type":"uint256","internalType":"uint256"}]}],"outputs":[],"stateMutability":"nonpayable"},{"type":"function","name":"subscribe","inputs":[{"name":"rvm_id","type":"address","internalType":"address"},{"name":"subscriber","type":"address","internalType":"address"}],"outputs":[],"stateMutability":"nonpayable"},{"type":"function","name":"unsubscribe","inputs":[{"name":"rvm_id","type":"address","internalType":"address"},{"name":"subscriber","type":"address","internalType":"address"}],"outputs":[],"stateMutability":"nonpayable"},{"type":"event","name":"Callback","inputs":[{"name":"chain_id","type":"uint256","indexed":true,"internalType":"uint256"},{"name":"_contract","type":"address","indexed":true,"internalType":"address"},{"name":"gas_limit","type":"uint64","indexed":true,"internalType":"uint64"},{"name":"payload","type":"bytes","indexed":false,"internalType":"bytes"}],"anonymous":false}],"bytecode":{"object":"0x6080604052604051610ccd380380610ccd83398101604081905261002291610230565b600280545f80546001600160a01b03191662ffffff908117825590819052600160208190527f82ea04094b91fdbcc6bc700815069948943553fb456ac308389bf83006127735805460ff191690911790553b156001600160a81b03199091161763ffffff0017905560038054336001600160a01b031991821617909155600480549091166001600160a01b03831617905560025460ff1661022a57600254600480546040516305a6aced60e41b815262aa36a7928101929092526001600160a01b0390811660248301527f1aec2cf998e5b9daa15739cf56ce9bb0f29355de099191a2118402e5ac0805c860448301525f516020610cad5f395f51905f52606483018190526084830181905260a483015261010090920490911690635a6aced09060c4015f604051808303815f87803b15801561015d575f5ffd5b505af115801561016f573d5f5f3e3d5ffd5b5050600254600480546040516305a6aced60e41b815262aa36a7928101929092526001600160a01b0390811660248301527feed050308c603899d7397c26bdccda0810c3ccc6e9730a8a10c452b522f8edf460448301525f516020610cad5f395f51905f52606483018190526084830181905260a48301526101009092049091169250635a6aced0915060c4015f604051808303815f87803b158015610213575f5ffd5b505af1158015610225573d5f5f3e3d5ffd5b505050505b5061025d565b5f60208284031215610240575f5ffd5b81516001600160a01b0381168114610256575f5ffd5b9392505050565b610a438061026a5f395ff3fe60806040526004361061004c575f3560e01c80630d152c2c146100575780637a90b99014610078578063b314d4141461008c578063c290d691146100ab578063e135532c146100ca575f5ffd5b3661005357005b5f5ffd5b348015610062575f5ffd5b506100766100713660046108a6565b6100e9565b005b348015610083575f5ffd5b5061007661038f565b348015610097575f5ffd5b506100766100a6366004610900565b610411565b3480156100b6575f5ffd5b506100766100c5366004610931565b6105c4565b3480156100d5575f5ffd5b506100766100e4366004610900565b610625565b60025460ff1661012a5760405162461bcd60e51b8152602060048201526007602482015266564d206f6e6c7960c81b60448201526064015b60405180910390fd5b7f1aec2cf998e5b9daa15739cf56ce9bb0f29355de099191a2118402e5ac0805c88160400135036101ea576040515f602482018190526001600160a01b0360608401351660448301529060640160408051601f198184030181529181526020820180516001600160e01b0316632cc5350560e21b17905251909150620f424090309062512578907f8dd725fa9d6cd150017ab9e60318d40616439424e2fade9c1c58854950917dfc906101de908690610948565b60405180910390a45050565b7feed050308c603899d7397c26bdccda0810c3ccc6e9730a8a10c452b522f8edf481604001350361029e576040515f602482018190526001600160a01b0360608401351660448301529060640160408051601f198184030181529181526020820180516001600160e01b031663384d54cb60e21b17905251909150620f424090309062512578907f8dd725fa9d6cd150017ab9e60318d40616439424e2fade9c1c58854950917dfc906101de908690610948565b5f6102ac60c083018361097d565b8101906102b99190610931565b90505f80608084013560608501356102d760408701602088016109c7565b6040516001600160a01b03948516602482015292841660448401529083166064830152909116608482015260a4810183905260c40160408051601f198184030181529181526020820180516001600160e01b0316632f90252d60e01b1790526004549051919250620f4240916001600160a01b039091169062aa36a7907f8dd725fa9d6cd150017ab9e60318d40616439424e2fade9c1c58854950917dfc90610381908690610948565b60405180910390a450505b50565b5f80546040516326db15bb60e21b81523060048201526001600160a01b0390911690639b6c56ec90602401602060405180830381865afa1580156103d5573d5f5f3e3d5ffd5b505050506040513d601f19601f820116820180604052508101906103f991906109e0565b5f5490915061038c906001600160a01b0316826107aa565b60025460ff161561045c5760405162461bcd60e51b81526020600482015260156024820152745265616374697665204e6574776f726b206f6e6c7960581b6044820152606401610121565b600254829061010090046001600160a01b031633146104ad5760405162461bcd60e51b815260206004820152600d60248201526c43616c6c6261636b206f6e6c7960981b6044820152606401610121565b6003546001600160a01b038281169116146104f95760405162461bcd60e51b815260206004820152600c60248201526b15dc9bdb99c811559348125160a21b6044820152606401610121565b6002546040516305a6aced60e41b815262aa36a760048201525f60248201527f8c5be1e5ebec7d5bd14f71427d1e84f3dd0314c0f7b2291e5b200ac8c7c3b92560448201527fa65f96fc951c35ead38878e0f0b7a3c744a6f5ccc1476b313353ce31712313ad606482018190526001600160a01b03858116608484015260a483019190915261010090920490911690635a6aced09060c4015b5f604051808303815f87803b1580156105a9575f5ffd5b505af11580156105bb573d5f5f3e3d5ffd5b50505050505050565b335f9081526001602052604090205460ff1661061b5760405162461bcd60e51b8152602060048201526016602482015275417574686f72697a65642073656e646572206f6e6c7960501b6044820152606401610121565b61038c33826107aa565b60025460ff16156106705760405162461bcd60e51b81526020600482015260156024820152745265616374697665204e6574776f726b206f6e6c7960581b6044820152606401610121565b600254829061010090046001600160a01b031633146106c15760405162461bcd60e51b815260206004820152600d60248201526c43616c6c6261636b206f6e6c7960981b6044820152606401610121565b6003546001600160a01b0382811691161461070d5760405162461bcd60e51b815260206004820152600c60248201526b15dc9bdb99c811559348125160a21b6044820152606401610121565b6002546040516317c0399b60e11b815262aa36a760048201525f60248201527f8c5be1e5ebec7d5bd14f71427d1e84f3dd0314c0f7b2291e5b200ac8c7c3b92560448201527fa65f96fc951c35ead38878e0f0b7a3c744a6f5ccc1476b313353ce31712313ad606482018190526001600160a01b03858116608484015260a483019190915261010090920490911690632f8073369060c401610592565b804710156107ef5760405162461bcd60e51b8152602060048201526012602482015271496e73756666696369656e742066756e647360701b6044820152606401610121565b80156108a257604080515f808252602082019092526001600160a01b03841690839060405161081e91906109f7565b5f6040518083038185875af1925050503d805f8114610858576040519150601f19603f3d011682016040523d82523d5f602084013e61085d565b606091505b50509050806108a05760405162461bcd60e51b815260206004820152600f60248201526e151c985b9cd9995c8819985a5b1959608a1b6044820152606401610121565b505b5050565b5f602082840312156108b6575f5ffd5b813567ffffffffffffffff8111156108cc575f5ffd5b820161018081850312156108de575f5ffd5b9392505050565b80356001600160a01b03811681146108fb575f5ffd5b919050565b5f5f60408385031215610911575f5ffd5b61091a836108e5565b9150610928602084016108e5565b90509250929050565b5f60208284031215610941575f5ffd5b5035919050565b602081525f82518060208401528060208501604085015e5f604082850101526040601f19601f83011684010191505092915050565b5f5f8335601e19843603018112610992575f5ffd5b83018035915067ffffffffffffffff8211156109ac575f5ffd5b6020019150368190038213156109c0575f5ffd5b9250929050565b5f602082840312156109d7575f5ffd5b6108de826108e5565b5f602082840312156109f0575f5ffd5b5051919050565b5f82518060208501845e5f92019182525091905056fea2646970667358221220d4bee7a33b211e151357a1bce1de47f8faf00faa4fa5dfcdd07ec927f30c110764736f6c634300081b0033a65f96fc951c35ead38878e0f0b7a3c744a6f5ccc1476b313353ce31712313ad","linkReferences":{}},"methodIdentifiers":{"coverDebt()":"7a90b990","pay(uint256)":"c290d691","react((uint256,address,uint256,uint256,uint256,uint256,bytes,uint256,uint256,uint256,uint256,uint256))":"0d152c2c","subscribe(address,address)":"b314d414","unsubscribe(address,address)":"e135532c"},"id":8}