{"abi":[{"type":"constructor","inputs":[{"name":"callback","type":"address","internalType":"address"}],"stateMutability":"payable"},{"type":"receive","stateMutability":"payable"},{"type":"function","name":"coverDebt","inputs":[],"outputs":[],"stateMutability":"nonpayable"},{"type":"function","name":"mintTokens","inputs":[{"name":"","type":"address","internalType":"address"},{"name":"user","type":"address","internalType":"address"},{"name":"tokenAddress","type":"address","internalType":"address"},{"name":"amount","type":"uint256","internalType":"uint256"}],"outputs":[],"stateMutability":"nonpayable"},{"type":"function","name":"pay","inputs":[{"name":"amount","type":"uint256","internalType":"uint256"}],"outputs":[],"stateMutability":"nonpayable"},{"type":"event","name":"TokensBurned","inputs":[{"name":"token","type":"address","indexed":false,"internalType":"address"},{"name":"from","type":"address","indexed":false,"internalType":"address"},{"name":"amount","type":"uint256","indexed":false,"internalType":"uint256"}],"anonymous":false},{"type":"event","name":"TokensMinted","inputs":[{"name":"token","type":"address","indexed":false,"internalType":"address"},{"name":"to","type":"address","indexed":false,"internalType":"address"},{"name":"amount","type":"uint256","indexed":false,"internalType":"uint256"}],"anonymous":false}],"bytecode":{"object":"0x608060405260405161076f38038061076f8339810160408190526020916067565b600280546001600160a01b031990811633179091555f80546001600160a01b038416921682178155908152600160208190526040909120805460ff19169091179055506092565b5f602082840312156076575f5ffd5b81516001600160a01b0381168114608b575f5ffd5b9392505050565b6106d08061009f5f395ff3fe608060405260043610610036575f3560e01c806319707845146100415780637a90b99014610062578063c290d69114610076575f5ffd5b3661003d57005b5f5ffd5b34801561004c575f5ffd5b5061006061005b3660046104cc565b610095565b005b34801561006d575f5ffd5b506100606102d3565b348015610081575f5ffd5b50610060610090366004610514565b610358565b6001600160a01b0382166100e85760405162461bcd60e51b8152602060048201526015602482015274496e76616c696420746f6b656e206164647265737360581b60448201526064015b60405180910390fd5b6001600160a01b03831661013e5760405162461bcd60e51b815260206004820152601960248201527f496e76616c696420726563697069656e7420616464726573730000000000000060448201526064016100df565b5f811161018d5760405162461bcd60e51b815260206004820152601d60248201527f416d6f756e74206d7573742062652067726561746572207468616e203000000060448201526064016100df565b6040516340c10f1960e01b81526001600160a01b038481166004830152602482018390528316906340c10f19906044015f604051808303815f87803b1580156101d4575f5ffd5b505af19250505080156101e5575060015b610282576101f161052b565b806308c379a003610247575061020561057d565b806102105750610249565b806040516020016102219190610618565b60408051601f198184030181529082905262461bcd60e51b82526100df91600401610643565b505b60405162461bcd60e51b815260206004820152600e60248201526d135a5b9d1a5b99c819985a5b195960921b60448201526064016100df565b604080516001600160a01b038085168252851660208201529081018290527fbf67ec129007be07f346d9d2933215293a6612ce7ff17d6b479a5a5cae72890c9060600160405180910390a150505050565b5f80546040516326db15bb60e21b81523060048201526001600160a01b0390911690639b6c56ec90602401602060405180830381865afa158015610319573d5f5f3e3d5ffd5b505050506040513d601f19601f8201168201806040525081019061033d9190610678565b5f54909150610355906001600160a01b0316826103b5565b50565b335f9081526001602052604090205460ff166103af5760405162461bcd60e51b8152602060048201526016602482015275417574686f72697a65642073656e646572206f6e6c7960501b60448201526064016100df565b61035533825b804710156103fa5760405162461bcd60e51b8152602060048201526012602482015271496e73756666696369656e742066756e647360701b60448201526064016100df565b80156104ad57604080515f808252602082019092526001600160a01b038416908390604051610429919061068f565b5f6040518083038185875af1925050503d805f8114610463576040519150601f19603f3d011682016040523d82523d5f602084013e610468565b606091505b50509050806104ab5760405162461bcd60e51b815260206004820152600f60248201526e151c985b9cd9995c8819985a5b1959608a1b60448201526064016100df565b505b5050565b80356001600160a01b03811681146104c7575f5ffd5b919050565b5f5f5f5f608085870312156104df575f5ffd5b6104e8856104b1565b93506104f6602086016104b1565b9250610504604086016104b1565b9396929550929360600135925050565b5f60208284031215610524575f5ffd5b5035919050565b5f60033d11156105415760045f5f3e505f5160e01c5b90565b601f8201601f1916810167ffffffffffffffff8111828210171561057657634e487b7160e01b5f52604160045260245ffd5b6040525050565b5f60443d101561058a5790565b6040513d600319016004823e80513d602482011167ffffffffffffffff821117156105b457505090565b808201805167ffffffffffffffff8111156105d0575050505090565b3d84016003190182820160200111156105ea575050505090565b6105f960208285010185610544565b509392505050565b5f81518060208401855e5f93019283525090919050565b6f026b4b73a34b733903330b4b632b21d160851b81525f61063c6010830184610601565b9392505050565b602081525f82518060208401528060208501604085015e5f604082850101526040601f19601f83011684010191505092915050565b5f60208284031215610688575f5ffd5b5051919050565b5f61063c828461060156fea26469706673582212201492f557aeba29038ee03fed43e77fe4566dedda5c5d1e631fc28e6e09cafb6164736f6c634300081b0033","linkReferences":{}},"methodIdentifiers":{"coverDebt()":"7a90b990","mintTokens(address,address,address,uint256)":"19707845","pay(uint256)":"c290d691"},"id":4}