{"abi":[{"type":"constructor","inputs":[{"name":"subscription_fee_","type":"uint256","internalType":"uint256"},{"name":"gas_coefficient_","type":"uint256","internalType":"uint256"},{"name":"extra_gas_","type":"uint256","internalType":"uint256"}],"stateMutability":"payable"},{"type":"receive","stateMutability":"payable"},{"type":"function","name":"coverDebt","inputs":[],"outputs":[],"stateMutability":"nonpayable"},{"type":"function","name":"onApproval","inputs":[{"name":"rvm_id","type":"address","internalType":"address"},{"name":"target","type":"address","internalType":"contract IApprovalClient"},{"name":"approver","type":"address","internalType":"address"},{"name":"approved_token","type":"address","internalType":"address"},{"name":"amount","type":"uint256","internalType":"uint256"}],"outputs":[],"stateMutability":"nonpayable"},{"type":"function","name":"pay","inputs":[{"name":"amount","type":"uint256","internalType":"uint256"}],"outputs":[],"stateMutability":"nonpayable"},{"type":"function","name":"subscribe","inputs":[],"outputs":[],"stateMutability":"payable"},{"type":"function","name":"subscription_fee","inputs":[],"outputs":[{"name":"","type":"uint256","internalType":"uint256"}],"stateMutability":"view"},{"type":"function","name":"unsubscribe","inputs":[],"outputs":[],"stateMutability":"nonpayable"},{"type":"function","name":"withdraw","inputs":[],"outputs":[],"stateMutability":"nonpayable"},{"type":"event","name":"Subscribe","inputs":[{"name":"subscriber","type":"address","indexed":true,"internalType":"address"}],"anonymous":false},{"type":"event","name":"Unsubscribe","inputs":[{"name":"subscriber","type":"address","indexed":true,"internalType":"address"}],"anonymous":false}],"bytecode":{"object":"0x608060405260405161095438038061095483398101604081905260209160ac565b60028054336001600160a01b0319918216179091555f80547333bbb7d0a2f1029550b0e91f653c4055dc9f4dd8921682178155819052600160208190527f304377135e2862fb48ae3a3e6c67b71bda268e303c5b120ef9cbc93823075552805460ff1916909117905550600380546001600160a01b0319163317905560049290925560055560065560d6565b5f5f5f6060848603121560bd575f5ffd5b5050815160208301516040909301519094929350919050565b610871806100e35f395ff3fe608060405260043610610071575f3560e01c80638f449a051161004c5780638f449a05146100c5578063c290d691146100cd578063c645f429146100ec578063fcae448414610113575f5ffd5b80632f90252d1461007c5780633ccfd60b1461009d5780637a90b990146100b1575f5ffd5b3661007857005b5f5ffd5b348015610087575f5ffd5b5061009b610096366004610740565b610127565b005b3480156100a8575f5ffd5b5061009b61035e565b3480156100bc575f5ffd5b5061009b6103e2565b61009b610464565b3480156100d8575f5ffd5b5061009b6100e73660046107a0565b61053e565b3480156100f7575f5ffd5b5061010160045481565b60405190815260200160405180910390f35b34801561011e575f5ffd5b5061009b61059f565b335f9081526001602052604090205460ff166101835760405162461bcd60e51b8152602060048201526016602482015275417574686f72697a65642073656e646572206f6e6c7960501b60448201526064015b60405180910390fd5b60025485906001600160a01b031615806101aa57506002546001600160a01b038281169116145b6101ef5760405162461bcd60e51b8152602060048201526016602482015275417574686f72697a65642052564d204944206f6e6c7960501b604482015260640161017a565b5f5a60405163d1ce285f60e01b81526001600160a01b0387811660048301528681166024830152604482018690529192509087169063d1ce285f906064015f604051808303815f87803b158015610244575f5ffd5b505af1158015610256573d5f5f3e3d5ffd5b505050505f5a8260065461026a91906107cb565b61027491906107e4565b600554610281903a6107f7565b61028b91906107f7565b90506064811161029b578061029e565b60645b6040516211bf0560eb1b81526004810182905290915047906001600160a01b03891690638df82800906024015f604051808303815f87803b1580156102e1575f5ffd5b505af11580156102f3573d5f5f3e3d5ffd5b5050505081814761030491906107e4565b14610353576040516001600160a01b038916907feed050308c603899d7397c26bdccda0810c3ccc6e9730a8a10c452b522f8edf4905f90a2335f908152600760205260409020805460ff191690555b505050505050505050565b6003546001600160a01b031633146103a95760405162461bcd60e51b815260206004820152600e60248201526d139bdd08185d5d1a1bdc9a5e995960921b604482015260640161017a565b6003546040516001600160a01b03909116904780156108fc02915f818181858888f193505050501580156103df573d5f5f3e3d5ffd5b50565b5f80546040516326db15bb60e21b81523060048201526001600160a01b0390911690639b6c56ec90602401602060405180830381865afa158015610428573d5f5f3e3d5ffd5b505050506040513d601f19601f8201168201806040525081019061044c919061080e565b5f549091506103df906001600160a01b031682610630565b60045434146104a55760405162461bcd60e51b815260206004820152600d60248201526c496e636f72726563742066656560981b604482015260640161017a565b335f9081526007602052604090205460ff16156104f95760405162461bcd60e51b8152602060048201526012602482015271105b1c9958591e481cdd589cd8dc9a58995960721b604482015260640161017a565b60405133907f1aec2cf998e5b9daa15739cf56ce9bb0f29355de099191a2118402e5ac0805c8905f90a2335f908152600760205260409020805460ff19166001179055565b335f9081526001602052604090205460ff166105955760405162461bcd60e51b8152602060048201526016602482015275417574686f72697a65642073656e646572206f6e6c7960501b604482015260640161017a565b6103df3382610630565b335f9081526007602052604090205460ff166105ee5760405162461bcd60e51b815260206004820152600e60248201526d139bdd081cdd589cd8dc9a58995960921b604482015260640161017a565b60405133907feed050308c603899d7397c26bdccda0810c3ccc6e9730a8a10c452b522f8edf4905f90a2335f908152600760205260409020805460ff19169055565b804710156106755760405162461bcd60e51b8152602060048201526012602482015271496e73756666696369656e742066756e647360701b604482015260640161017a565b801561072857604080515f808252602082019092526001600160a01b0384169083906040516106a49190610825565b5f6040518083038185875af1925050503d805f81146106de576040519150601f19603f3d011682016040523d82523d5f602084013e6106e3565b606091505b50509050806107265760405162461bcd60e51b815260206004820152600f60248201526e151c985b9cd9995c8819985a5b1959608a1b604482015260640161017a565b505b5050565b6001600160a01b03811681146103df575f5ffd5b5f5f5f5f5f60a08688031215610754575f5ffd5b853561075f8161072c565b9450602086013561076f8161072c565b9350604086013561077f8161072c565b9250606086013561078f8161072c565b949793965091946080013592915050565b5f602082840312156107b0575f5ffd5b5035919050565b634e487b7160e01b5f52601160045260245ffd5b808201808211156107de576107de6107b7565b92915050565b818103818111156107de576107de6107b7565b80820281158282048414176107de576107de6107b7565b5f6020828403121561081e575f5ffd5b5051919050565b5f82518060208501845e5f92019182525091905056fea26469706673582212208ac207badafafee2c37bfb4bed33d519bf017409f1d1b0392cd4f825f75b8f5d64736f6c634300081b0033","linkReferences":{}},"methodIdentifiers":{"coverDebt()":"7a90b990","onApproval(address,address,address,address,uint256)":"2f90252d","pay(uint256)":"c290d691","subscribe()":"8f449a05","subscription_fee()":"c645f429","unsubscribe()":"fcae4484","withdraw()":"3ccfd60b"},"id":8}