{"abi":[{"type":"constructor","inputs":[{"name":"service_","type":"address","internalType":"contract ApprovalService"}],"stateMutability":"payable"},{"type":"receive","stateMutability":"payable"},{"type":"function","name":"coverDebt","inputs":[],"outputs":[],"stateMutability":"nonpayable"},{"type":"function","name":"getDestinationToken","inputs":[{"name":"originToken","type":"address","internalType":"address"}],"outputs":[{"name":"","type":"address","internalType":"address"}],"stateMutability":"view"},{"type":"function","name":"lockedTokens","inputs":[{"name":"","type":"address","internalType":"address"},{"name":"","type":"address","internalType":"address"}],"outputs":[{"name":"","type":"uint256","internalType":"uint256"}],"stateMutability":"view"},{"type":"function","name":"onApproval","inputs":[{"name":"approver","type":"address","internalType":"address"},{"name":"approved_token","type":"address","internalType":"address"},{"name":"amount","type":"uint256","internalType":"uint256"}],"outputs":[],"stateMutability":"nonpayable"},{"type":"function","name":"owner","inputs":[],"outputs":[{"name":"","type":"address","internalType":"address"}],"stateMutability":"view"},{"type":"function","name":"pay","inputs":[{"name":"amount","type":"uint256","internalType":"uint256"}],"outputs":[],"stateMutability":"nonpayable"},{"type":"function","name":"removeTokenPair","inputs":[{"name":"originToken","type":"address","internalType":"address"}],"outputs":[],"stateMutability":"nonpayable"},{"type":"function","name":"setTokenPair","inputs":[{"name":"originToken","type":"address","internalType":"address"},{"name":"destinationToken","type":"address","internalType":"address"}],"outputs":[],"stateMutability":"nonpayable"},{"type":"function","name":"settle","inputs":[{"name":"amount","type":"uint256","internalType":"uint256"}],"outputs":[],"stateMutability":"nonpayable"},{"type":"function","name":"subscribe","inputs":[],"outputs":[],"stateMutability":"nonpayable"},{"type":"function","name":"tokenPairs","inputs":[{"name":"","type":"address","internalType":"address"}],"outputs":[{"name":"","type":"address","internalType":"address"}],"stateMutability":"view"},{"type":"function","name":"unsubscribe","inputs":[],"outputs":[],"stateMutability":"nonpayable"},{"type":"function","name":"withdraw","inputs":[{"name":"","type":"address","internalType":"address"},{"name":"user","type":"address","internalType":"address"},{"name":"tokenAddress","type":"address","internalType":"address"},{"name":"amount","type":"uint256","internalType":"uint256"}],"outputs":[],"stateMutability":"nonpayable"},{"type":"event","name":"TokenPairSet","inputs":[{"name":"originToken","type":"address","indexed":true,"internalType":"address"},{"name":"destinationToken","type":"address","indexed":true,"internalType":"address"}],"anonymous":false},{"type":"event","name":"TokensBridged","inputs":[{"name":"user","type":"address","indexed":true,"internalType":"address"},{"name":"destinationToken","type":"address","indexed":true,"internalType":"address"},{"name":"amount","type":"uint256","indexed":true,"internalType":"uint256"},{"name":"originTokenAddress","type":"address","indexed":false,"internalType":"address"}],"anonymous":false},{"type":"event","name":"TokensWithdrawn","inputs":[{"name":"user","type":"address","indexed":true,"internalType":"address"},{"name":"tokenAddress","type":"address","indexed":true,"internalType":"address"},{"name":"amount","type":"uint256","indexed":false,"internalType":"uint256"}],"anonymous":false},{"type":"error","name":"ReentrancyGuardReentrantCall","inputs":[]}],"bytecode":{"object":"0x60c06040526040516112723803806112728339810160408190526100229161008d565b60015f81815560038054336001600160a01b031991821617909155825416825580805260026020527fac33ff75c19e70fe83507db0d683fd3465c996598dc972688b7ace676c89077b805460ff191690921790915550336080526001600160a01b031660a0526100ba565b5f6020828403121561009d575f5ffd5b81516001600160a01b03811681146100b3575f5ffd5b9392505050565b60805160a05161115861011a5f395f818161059a01528181610644015281816106d9015281816107b701528181610aff0152610dd701525f81816101a80152818161069901528181610833015281816108fc0152610d9801526111585ff3fe6080604052600436106100c2575f3560e01c80638f449a051161007c578063b517f7cb11610057578063b517f7cb14610253578063c290d69114610272578063d1ce285f14610291578063fcae4484146102b0575f5ffd5b80638f449a05146101e95780639df6a379146101fd578063b4069b311461021c575f5ffd5b80630774e003146100cd5780630b620b811461011657806347bbbdf5146101375780637a90b990146101835780638da5cb5b146101975780638df82800146101ca575f5ffd5b366100c957005b5f5ffd5b3480156100d8575f5ffd5b506101036100e7366004610f5b565b600460209081525f928352604080842090915290825290205481565b6040519081526020015b60405180910390f35b348015610121575f5ffd5b50610135610130366004610f8c565b6102c4565b005b348015610142575f5ffd5b5061016b610151366004610fd4565b60056020525f90815260409020546001600160a01b031681565b6040516001600160a01b03909116815260200161010d565b34801561018e575f5ffd5b50610135610509565b3480156101a2575f5ffd5b5061016b7f000000000000000000000000000000000000000000000000000000000000000081565b3480156101d5575f5ffd5b506101356101e4366004610ff4565b61058f565b3480156101f4575f5ffd5b5061013561068e565b348015610208575f5ffd5b50610135610217366004610fd4565b610828565b348015610227575f5ffd5b5061016b610236366004610fd4565b6001600160a01b039081165f908152600560205260409020541690565b34801561025e575f5ffd5b5061013561026d366004610f5b565b6108f1565b34801561027d575f5ffd5b5061013561028c366004610ff4565b610a93565b34801561029c575f5ffd5b506101356102ab36600461100b565b610af4565b3480156102bb575f5ffd5b50610135610d8d565b6102cc610e3f565b5f81116103205760405162461bcd60e51b815260206004820152601d60248201527f416d6f756e74206d7573742062652067726561746572207468616e203000000060448201526064015b60405180910390fd5b6001600160a01b03821661036e5760405162461bcd60e51b8152602060048201526015602482015274496e76616c696420746f6b656e206164647265737360581b6044820152606401610317565b6001600160a01b038084165f908152600460209081526040808320938616835292905220548111156103e25760405162461bcd60e51b815260206004820152601a60248201527f496e73756666696369656e74206c6f636b656420746f6b656e730000000000006044820152606401610317565b6001600160a01b038084165f90815260046020908152604080832093861683529290529081208054839290610418908490611059565b909155505060405163a9059cbb60e01b81526001600160a01b0384811660048301526024820183905283919082169063a9059cbb906044016020604051808303815f875af115801561046c573d5f5f3e3d5ffd5b505050506040513d601f19601f820116820180604052508101906104909190611072565b6104ac5760405162461bcd60e51b815260040161031790611091565b826001600160a01b0316846001600160a01b03167f6337ed398c0e8467698c581374fdce4db14922df487b5a39483079f5f59b60a4846040516104f191815260200190565b60405180910390a35061050360015f55565b50505050565b6001546040516326db15bb60e21b81523060048201525f916001600160a01b031690639b6c56ec90602401602060405180830381865afa15801561054f573d5f5f3e3d5ffd5b505050506040513d601f19601f8201168201806040525081019061057391906110ba565b60015490915061058c906001600160a01b031682610e67565b50565b336001600160a01b037f000000000000000000000000000000000000000000000000000000000000000016146105d75760405162461bcd60e51b8152600401610317906110d1565b478111156106315760405162461bcd60e51b815260206004820152602160248201527f496e73756666696369656e742066756e647320666f7220736574746c656d656e6044820152601d60fa1b6064820152608401610317565b801561058c576040516001600160a01b037f0000000000000000000000000000000000000000000000000000000000000000169082156108fc029083905f818181858888f1935050505015801561068a573d5f5f3e3d5ffd5b5050565b336001600160a01b037f000000000000000000000000000000000000000000000000000000000000000016146106d65760405162461bcd60e51b8152600401610317906110d1565b5f7f00000000000000000000000000000000000000000000000000000000000000006001600160a01b031663c645f4296040518163ffffffff1660e01b8152600401602060405180830381865afa158015610733573d5f5f3e3d5ffd5b505050506040513d601f19601f8201168201806040525081019061075791906110ba565b9050478111156107b55760405162461bcd60e51b815260206004820152602360248201527f496e73756666696369656e742066756e647320666f722073756273637269707460448201526234b7b760e91b6064820152608401610317565b7f00000000000000000000000000000000000000000000000000000000000000006001600160a01b0316638f449a05826040518263ffffffff1660e01b81526004015f604051808303818588803b15801561080e575f5ffd5b505af1158015610820573d5f5f3e3d5ffd5b505050505050565b336001600160a01b037f000000000000000000000000000000000000000000000000000000000000000016146108705760405162461bcd60e51b8152600401610317906110d1565b6001600160a01b038181165f90815260056020526040902054166108cb5760405162461bcd60e51b815260206004820152601260248201527114185a5c88191bd95cdb89dd08195e1a5cdd60721b6044820152606401610317565b6001600160a01b03165f90815260056020526040902080546001600160a01b0319169055565b336001600160a01b037f000000000000000000000000000000000000000000000000000000000000000016146109395760405162461bcd60e51b8152600401610317906110d1565b6001600160a01b0382166109865760405162461bcd60e51b815260206004820152601460248201527324b73b30b634b21037b934b3b4b7103a37b5b2b760611b6044820152606401610317565b6001600160a01b0381166109dc5760405162461bcd60e51b815260206004820152601960248201527f496e76616c69642064657374696e6174696f6e20746f6b656e000000000000006044820152606401610317565b806001600160a01b0316826001600160a01b031603610a3d5760405162461bcd60e51b815260206004820152601860248201527f546f6b656e73206d75737420626520646966666572656e7400000000000000006044820152606401610317565b6001600160a01b038281165f8181526005602052604080822080546001600160a01b0319169486169485179055517f596302d7ce010c7b069a6301e7573cb5b2122560c078a2228f220da5c8c50c9e9190a35050565b335f9081526002602052604090205460ff16610aea5760405162461bcd60e51b8152602060048201526016602482015275417574686f72697a65642073656e646572206f6e6c7960501b6044820152606401610317565b61058c3382610e67565b336001600160a01b037f00000000000000000000000000000000000000000000000000000000000000001614610b3c5760405162461bcd60e51b8152600401610317906110d1565b6001600160a01b038281165f9081526005602052604090205416610ba25760405162461bcd60e51b815260206004820152601960248201527f546f6b656e2070616972206e6f7420636f6e66696775726564000000000000006044820152606401610317565b6001600160a01b038281165f8181526005602052604090819020549051636eb1769f60e11b815286841660048201523060248201529216918491849163dd62ed3e90604401602060405180830381865afa158015610c02573d5f5f3e3d5ffd5b505050506040513d601f19601f82011682018060405250810190610c2691906110ba565b14610c735760405162461bcd60e51b815260206004820152601860248201527f417070726f76616c20616d6f756e74206d69736d6174636800000000000000006044820152606401610317565b6040516323b872dd60e01b81526001600160a01b038681166004830152306024830152604482018590528216906323b872dd906064016020604051808303815f875af1158015610cc5573d5f5f3e3d5ffd5b505050506040513d601f19601f82011682018060405250810190610ce99190611072565b610d055760405162461bcd60e51b815260040161031790611091565b6001600160a01b038086165f90815260046020908152604080832093881683529290529081208054859290610d3b9084906110f9565b90915550506040516001600160a01b0385811682528491818516918816907f52d1932b2d8d6a97999f213ba0781cd05860c8ce4b35baf9b72ce2c17c1018489060200160405180910390a45050505050565b336001600160a01b037f00000000000000000000000000000000000000000000000000000000000000001614610dd55760405162461bcd60e51b8152600401610317906110d1565b7f00000000000000000000000000000000000000000000000000000000000000006001600160a01b031663fcae44846040518163ffffffff1660e01b81526004015f604051808303815f87803b158015610e2d575f5ffd5b505af1158015610503573d5f5f3e3d5ffd5b60025f5403610e6157604051633ee5aeb560e01b815260040160405180910390fd5b60025f55565b80471015610eac5760405162461bcd60e51b8152602060048201526012602482015271496e73756666696369656e742066756e647360701b6044820152606401610317565b801561068a57604080515f808252602082019092526001600160a01b038416908390604051610edb919061110c565b5f6040518083038185875af1925050503d805f8114610f15576040519150601f19603f3d011682016040523d82523d5f602084013e610f1a565b606091505b5050905080610f3b5760405162461bcd60e51b815260040161031790611091565b505050565b80356001600160a01b0381168114610f56575f5ffd5b919050565b5f5f60408385031215610f6c575f5ffd5b610f7583610f40565b9150610f8360208401610f40565b90509250929050565b5f5f5f5f60808587031215610f9f575f5ffd5b610fa885610f40565b9350610fb660208601610f40565b9250610fc460408601610f40565b9396929550929360600135925050565b5f60208284031215610fe4575f5ffd5b610fed82610f40565b9392505050565b5f60208284031215611004575f5ffd5b5035919050565b5f5f5f6060848603121561101d575f5ffd5b61102684610f40565b925061103460208501610f40565b929592945050506040919091013590565b634e487b7160e01b5f52601160045260245ffd5b8181038181111561106c5761106c611045565b92915050565b5f60208284031215611082575f5ffd5b81518015158114610fed575f5ffd5b6020808252600f908201526e151c985b9cd9995c8819985a5b1959608a1b604082015260600190565b5f602082840312156110ca575f5ffd5b5051919050565b6020808252600e908201526d139bdd08185d5d1a1bdc9a5e995960921b604082015260600190565b8082018082111561106c5761106c611045565b5f82518060208501845e5f92019182525091905056fea264697066735822122070ea928804afe672f4a208d5cded7459e7e96820f692f9b08342b752eed1f58864736f6c634300081b0033","linkReferences":{}},"methodIdentifiers":{"coverDebt()":"7a90b990","getDestinationToken(address)":"b4069b31","lockedTokens(address,address)":"0774e003","onApproval(address,address,uint256)":"d1ce285f","owner()":"8da5cb5b","pay(uint256)":"c290d691","removeTokenPair(address)":"9df6a379","setTokenPair(address,address)":"b517f7cb","settle(uint256)":"8df82800","subscribe()":"8f449a05","tokenPairs(address)":"47bbbdf5","unsubscribe()":"fcae4484","withdraw(address,address,address,uint256)":"0b620b81"},"id":7}