{"abi":[{"type":"constructor","inputs":[],"stateMutability":"payable"},{"type":"receive","stateMutability":"payable"},{"type":"function","name":"burnTokens","inputs":[{"name":"tokenAddress","type":"address","internalType":"address"},{"name":"user","type":"address","internalType":"address"},{"name":"amount","type":"uint256","internalType":"uint256"}],"outputs":[],"stateMutability":"nonpayable"},{"type":"function","name":"coverDebt","inputs":[],"outputs":[],"stateMutability":"nonpayable"},{"type":"function","name":"mintTokens","inputs":[{"name":"","type":"address","internalType":"address"},{"name":"tokenAddress","type":"address","internalType":"address"},{"name":"user","type":"address","internalType":"address"},{"name":"amount","type":"uint256","internalType":"uint256"}],"outputs":[],"stateMutability":"nonpayable"},{"type":"function","name":"pay","inputs":[{"name":"amount","type":"uint256","internalType":"uint256"}],"outputs":[],"stateMutability":"nonpayable"},{"type":"event","name":"TokensBurned","inputs":[{"name":"token","type":"address","indexed":false,"internalType":"address"},{"name":"from","type":"address","indexed":false,"internalType":"address"},{"name":"amount","type":"uint256","indexed":false,"internalType":"uint256"}],"anonymous":false},{"type":"event","name":"TokensMinted","inputs":[{"name":"token","type":"address","indexed":false,"internalType":"address"},{"name":"to","type":"address","indexed":false,"internalType":"address"},{"name":"amount","type":"uint256","indexed":false,"internalType":"uint256"}],"anonymous":false}],"bytecode":{"object":"0x608060405260028054336001600160a01b0319918216179091555f80549091168155808052600160208190527fa6eef7e35abe7026729641147f7915573c7e97b47efa546f5f6e3230263bcb49805460ff191690911790555061090b806100655f395ff3fe608060405260043610610041575f3560e01c8063197078451461004c578063423c3a481461006d5780637a90b9901461008c578063c290d691146100a0575f5ffd5b3661004857005b5f5ffd5b348015610057575f5ffd5b5061006b6100663660046106a9565b6100bf565b005b348015610078575f5ffd5b5061006b6100873660046106f1565b6102fd565b348015610097575f5ffd5b5061006b6104b2565b3480156100ab575f5ffd5b5061006b6100ba36600461072b565b610537565b6001600160a01b0383166101125760405162461bcd60e51b8152602060048201526015602482015274496e76616c696420746f6b656e206164647265737360581b60448201526064015b60405180910390fd5b6001600160a01b0382166101685760405162461bcd60e51b815260206004820152601960248201527f496e76616c696420726563697069656e742061646472657373000000000000006044820152606401610109565b5f81116101b75760405162461bcd60e51b815260206004820152601d60248201527f416d6f756e74206d7573742062652067726561746572207468616e20300000006044820152606401610109565b6040516340c10f1960e01b81526001600160a01b038381166004830152602482018390528416906340c10f19906044015f604051808303815f87803b1580156101fe575f5ffd5b505af192505050801561020f575060015b6102ac5761021b610742565b806308c379a003610271575061022f610794565b8061023a5750610273565b8060405160200161024b919061082f565b60408051601f198184030181529082905262461bcd60e51b82526101099160040161085a565b505b60405162461bcd60e51b815260206004820152600e60248201526d135a5b9d1a5b99c819985a5b195960921b6044820152606401610109565b604080516001600160a01b038086168252841660208201529081018290527fbf67ec129007be07f346d9d2933215293a6612ce7ff17d6b479a5a5cae72890c9060600160405180910390a150505050565b6001600160a01b03831661034b5760405162461bcd60e51b8152602060048201526015602482015274496e76616c696420746f6b656e206164647265737360581b6044820152606401610109565b5f811161039a5760405162461bcd60e51b815260206004820152601d60248201527f416d6f756e74206d7573742062652067726561746572207468616e20300000006044820152606401610109565b604051630852cd8d60e31b8152600481018290526001600160a01b038416906342966c68906024015f604051808303815f87803b1580156103d9575f5ffd5b505af19250505080156103ea575060015b610461576103f6610742565b806308c379a003610426575061040a610794565b806104155750610428565b8060405160200161024b919061088f565b505b60405162461bcd60e51b815260206004820152600e60248201526d109d5c9b9a5b99c819985a5b195960921b6044820152606401610109565b604080516001600160a01b038086168252841660208201529081018290527f857ac1c9e97cc66ecae5f524c9c611463ae748b85af3ca454a5ec4d7d341924d9060600160405180910390a15b505050565b5f80546040516326db15bb60e21b81523060048201526001600160a01b0390911690639b6c56ec90602401602060405180830381865afa1580156104f8573d5f5f3e3d5ffd5b505050506040513d601f19601f8201168201806040525081019061051c91906108b3565b5f54909150610534906001600160a01b031682610594565b50565b335f9081526001602052604090205460ff1661058e5760405162461bcd60e51b8152602060048201526016602482015275417574686f72697a65642073656e646572206f6e6c7960501b6044820152606401610109565b61053433825b804710156105d95760405162461bcd60e51b8152602060048201526012602482015271496e73756666696369656e742066756e647360701b6044820152606401610109565b801561068a57604080515f808252602082019092526001600160a01b03841690839060405161060891906108ca565b5f6040518083038185875af1925050503d805f8114610642576040519150601f19603f3d011682016040523d82523d5f602084013e610647565b606091505b50509050806104ad5760405162461bcd60e51b815260206004820152600f60248201526e151c985b9cd9995c8819985a5b1959608a1b6044820152606401610109565b5050565b80356001600160a01b03811681146106a4575f5ffd5b919050565b5f5f5f5f608085870312156106bc575f5ffd5b6106c58561068e565b93506106d36020860161068e565b92506106e16040860161068e565b9396929550929360600135925050565b5f5f5f60608486031215610703575f5ffd5b61070c8461068e565b925061071a6020850161068e565b929592945050506040919091013590565b5f6020828403121561073b575f5ffd5b5035919050565b5f60033d11156107585760045f5f3e505f5160e01c5b90565b601f8201601f1916810167ffffffffffffffff8111828210171561078d57634e487b7160e01b5f52604160045260245ffd5b6040525050565b5f60443d10156107a15790565b6040513d600319016004823e80513d602482011167ffffffffffffffff821117156107cb57505090565b808201805167ffffffffffffffff8111156107e7575050505090565b3d8401600319018282016020011115610801575050505090565b6108106020828501018561075b565b509392505050565b5f81518060208401855e5f93019283525090919050565b6f026b4b73a34b733903330b4b632b21d160851b81525f6108536010830184610818565b9392505050565b602081525f82518060208401528060208501604085015e5f604082850101526040601f19601f83011684010191505092915050565b6f0213ab93734b733903330b4b632b21d160851b81525f6108536010830184610818565b5f602082840312156108c3575f5ffd5b5051919050565b5f610853828461081856fea2646970667358221220ba4f0591f0d3bffe168ae519e88dad4b1e66120d20abaff453c46667f3a260bd64736f6c634300081b0033","linkReferences":{}},"methodIdentifiers":{"burnTokens(address,address,uint256)":"423c3a48","coverDebt()":"7a90b990","mintTokens(address,address,address,uint256)":"19707845","pay(uint256)":"c290d691"},"id":4}