{"abi":[{"type":"constructor","inputs":[{"name":"_originContract","type":"address","internalType":"address"},{"name":"_destinationContract","type":"address","internalType":"address"}],"stateMutability":"nonpayable"},{"type":"receive","stateMutability":"payable"},{"type":"function","name":"coverDebt","inputs":[],"outputs":[],"stateMutability":"nonpayable"},{"type":"function","name":"pause","inputs":[],"outputs":[],"stateMutability":"nonpayable"},{"type":"function","name":"pay","inputs":[{"name":"amount","type":"uint256","internalType":"uint256"}],"outputs":[],"stateMutability":"nonpayable"},{"type":"function","name":"react","inputs":[{"name":"log","type":"tuple","internalType":"struct IReactive.LogRecord","components":[{"name":"chain_id","type":"uint256","internalType":"uint256"},{"name":"_contract","type":"address","internalType":"address"},{"name":"topic_0","type":"uint256","internalType":"uint256"},{"name":"topic_1","type":"uint256","internalType":"uint256"},{"name":"topic_2","type":"uint256","internalType":"uint256"},{"name":"topic_3","type":"uint256","internalType":"uint256"},{"name":"data","type":"bytes","internalType":"bytes"},{"name":"block_number","type":"uint256","internalType":"uint256"},{"name":"op_code","type":"uint256","internalType":"uint256"},{"name":"block_hash","type":"uint256","internalType":"uint256"},{"name":"tx_hash","type":"uint256","internalType":"uint256"},{"name":"log_index","type":"uint256","internalType":"uint256"}]}],"outputs":[],"stateMutability":"nonpayable"},{"type":"function","name":"resume","inputs":[],"outputs":[],"stateMutability":"nonpayable"},{"type":"event","name":"Callback","inputs":[{"name":"chain_id","type":"uint256","indexed":true,"internalType":"uint256"},{"name":"_contract","type":"address","indexed":true,"internalType":"address"},{"name":"gas_limit","type":"uint64","indexed":true,"internalType":"uint64"},{"name":"payload","type":"bytes","indexed":false,"internalType":"bytes"}],"anonymous":false}],"bytecode":{"object":"0x60c060405234801561000f575f5ffd5b50604051610f12380380610f1283398101604081905261002e91610280565b600280545f80546001600160a01b03191662ffffff908117825590819052600160208190527f82ea04094b91fdbcc6bc700815069948943553fb456ac308389bf83006127735805460ff191690911790553b156001600160a81b03199091161763ffffff00179055600380546001600160a01b031916331790556001600160a01b0382166101035760405162461bcd60e51b815260206004820152601760248201527f496e76616c6964206f726967696e20636f6e747261637400000000000000000060448201526064015b60405180910390fd5b6001600160a01b0381166101595760405162461bcd60e51b815260206004820152601c60248201527f496e76616c69642064657374696e6174696f6e20636f6e74726163740000000060448201526064016100fa565b6001600160a01b03808316608052811660a0526003805460ff60a01b1916905561018f6002805460ff191662ffffff3b15179055565b60025460ff1661025e576002546080516040516305a6aced60e41b815262aa36a760048201526001600160a01b0391821660248201527f52d1932b2d8d6a97999f213ba0781cd05860c8ce4b35baf9b72ce2c17c10184860448201527fa65f96fc951c35ead38878e0f0b7a3c744a6f5ccc1476b313353ce31712313ad606482018190526084820181905260a48201526101009092041690635a6aced09060c4015f604051808303815f87803b158015610247575f5ffd5b505af1158015610259573d5f5f3e3d5ffd5b505050505b50506102b1565b80516001600160a01b038116811461027b575f5ffd5b919050565b5f5f60408385031215610291575f5ffd5b61029a83610265565b91506102a860208401610265565b90509250929050565b60805160a051610c396102d95f395f6104df01525f81816103c0015261090c0152610c395ff3fe60806040526004361061004c575f3560e01c8063046f7da2146100575780630d152c2c1461006d5780637a90b9901461008c5780638456cb59146100a0578063c290d691146100b4575f5ffd5b3661005357005b5f5ffd5b348015610062575f5ffd5b5061006b6100d3565b005b348015610078575f5ffd5b5061006b610087366004610aed565b610336565b348015610097575f5ffd5b5061006b61053f565b3480156100ab575f5ffd5b5061006b6105c1565b3480156100bf575f5ffd5b5061006b6100ce366004610b2c565b61082a565b60025460ff16156101235760405162461bcd60e51b81526020600482015260156024820152745265616374697665204e6574776f726b206f6e6c7960581b60448201526064015b60405180910390fd5b6003546001600160a01b0316331461016c5760405162461bcd60e51b815260206004820152600c60248201526b155b985d5d1a1bdc9a5e995960a21b604482015260640161011a565b600354600160a01b900460ff166101b25760405162461bcd60e51b815260206004820152600a602482015269139bdd081c185d5cd95960b21b604482015260640161011a565b5f6101bb61088b565b90505f5b8151811461032557600260019054906101000a90046001600160a01b03166001600160a01b0316635a6aced08383815181106101fd576101fd610b43565b60200260200101515f015184848151811061021a5761021a610b43565b60200260200101516020015185858151811061023857610238610b43565b60200260200101516040015186868151811061025657610256610b43565b60200260200101516060015187878151811061027457610274610b43565b60200260200101516080015188888151811061029257610292610b43565b602090810291909101015160a001516040516001600160e01b031960e089901b16815260048101969096526001600160a01b03909416602486015260448501929092526064840152608483015260a482015260c4015f604051808303815f87803b1580156102fe575f5ffd5b505af1158015610310573d5f5f3e3d5ffd5b505050508061031e90610b57565b90506101bf565b50506003805460ff60a01b19169055565b60025460ff166103725760405162461bcd60e51b8152602060048201526007602482015266564d206f6e6c7960c81b604482015260640161011a565b803562aa36a7146103b65760405162461bcd60e51b815260206004820152600e60248201526d15dc9bdb99c818da185a5b88125160921b604482015260640161011a565b6001600160a01b037f0000000000000000000000000000000000000000000000000000000000000000166103f06040830160208401610b7b565b6001600160a01b03161461043f5760405162461bcd60e51b815260206004820152601660248201527557726f6e6720636f6e7472616374206164647265737360501b604482015260640161011a565b7f52d1932b2d8d6a97999f213ba0781cd05860c8ce4b35baf9b72ce2c17c10184881604001350361053c576040515f602482018190526001600160a01b03606084013581166044840152608084013516606483015260a083013560848301529060a40160408051601f198184030181529181526020820180516001600160e01b0316631970784560e01b17905251909150622dc6c0906001600160a01b037f0000000000000000000000000000000000000000000000000000000000000000169062512578907f8dd725fa9d6cd150017ab9e60318d40616439424e2fade9c1c58854950917dfc90610532908690610ba1565b60405180910390a4505b50565b5f80546040516326db15bb60e21b81523060048201526001600160a01b0390911690639b6c56ec90602401602060405180830381865afa158015610585573d5f5f3e3d5ffd5b505050506040513d601f19601f820116820180604052508101906105a99190610bd6565b5f5490915061053c906001600160a01b0316826109f1565b60025460ff161561060c5760405162461bcd60e51b81526020600482015260156024820152745265616374697665204e6574776f726b206f6e6c7960581b604482015260640161011a565b6003546001600160a01b031633146106555760405162461bcd60e51b815260206004820152600c60248201526b155b985d5d1a1bdc9a5e995960a21b604482015260640161011a565b600354600160a01b900460ff16156106a05760405162461bcd60e51b815260206004820152600e60248201526d105b1c9958591e481c185d5cd95960921b604482015260640161011a565b5f6106a961088b565b90505f5b8151811461081357600260019054906101000a90046001600160a01b03166001600160a01b0316632f8073368383815181106106eb576106eb610b43565b60200260200101515f015184848151811061070857610708610b43565b60200260200101516020015185858151811061072657610726610b43565b60200260200101516040015186868151811061074457610744610b43565b60200260200101516060015187878151811061076257610762610b43565b60200260200101516080015188888151811061078057610780610b43565b602090810291909101015160a001516040516001600160e01b031960e089901b16815260048101969096526001600160a01b03909416602486015260448501929092526064840152608483015260a482015260c4015f604051808303815f87803b1580156107ec575f5ffd5b505af11580156107fe573d5f5f3e3d5ffd5b505050508061080c90610b57565b90506106ad565b50506003805460ff60a01b1916600160a01b179055565b335f9081526001602052604090205460ff166108815760405162461bcd60e51b8152602060048201526016602482015275417574686f72697a65642073656e646572206f6e6c7960501b604482015260640161011a565b61053c33826109f1565b6040805160018082528183019092526060915f9190816020015b6108e16040518060c001604052805f81526020015f6001600160a01b031681526020015f81526020015f81526020015f81526020015f81525090565b8152602001906001900390816108a55790505090506040518060c0016040528062aa36a781526020017f00000000000000000000000000000000000000000000000000000000000000006001600160a01b031681526020017f52d1932b2d8d6a97999f213ba0781cd05860c8ce4b35baf9b72ce2c17c10184881526020017fa65f96fc951c35ead38878e0f0b7a3c744a6f5ccc1476b313353ce31712313ad81526020017fa65f96fc951c35ead38878e0f0b7a3c744a6f5ccc1476b313353ce31712313ad81526020017fa65f96fc951c35ead38878e0f0b7a3c744a6f5ccc1476b313353ce31712313ad815250815f815181106109e1576109e1610b43565b6020908102919091010152919050565b80471015610a365760405162461bcd60e51b8152602060048201526012602482015271496e73756666696369656e742066756e647360701b604482015260640161011a565b8015610ae957604080515f808252602082019092526001600160a01b038416908390604051610a659190610bed565b5f6040518083038185875af1925050503d805f8114610a9f576040519150601f19603f3d011682016040523d82523d5f602084013e610aa4565b606091505b5050905080610ae75760405162461bcd60e51b815260206004820152600f60248201526e151c985b9cd9995c8819985a5b1959608a1b604482015260640161011a565b505b5050565b5f60208284031215610afd575f5ffd5b813567ffffffffffffffff811115610b13575f5ffd5b82016101808185031215610b25575f5ffd5b9392505050565b5f60208284031215610b3c575f5ffd5b5035919050565b634e487b7160e01b5f52603260045260245ffd5b5f60018201610b7457634e487b7160e01b5f52601160045260245ffd5b5060010190565b5f60208284031215610b8b575f5ffd5b81356001600160a01b0381168114610b25575f5ffd5b602081525f82518060208401528060208501604085015e5f604082850101526040601f19601f83011684010191505092915050565b5f60208284031215610be6575f5ffd5b5051919050565b5f82518060208501845e5f92019182525091905056fea264697066735822122023976da0c54ccb39da7c01c418836abf3a572f5e8f021bc6296e8c76cf87ca4164736f6c634300081b0033","linkReferences":{}},"methodIdentifiers":{"coverDebt()":"7a90b990","pause()":"8456cb59","pay(uint256)":"c290d691","react((uint256,address,uint256,uint256,uint256,uint256,bytes,uint256,uint256,uint256,uint256,uint256))":"0d152c2c","resume()":"046f7da2"},"id":8}