{"abi":[{"type":"constructor","inputs":[{"name":"Origin_Contract","type":"address","internalType":"address"},{"name":"Destination_Contract","type":"address","internalType":"address"}],"stateMutability":"nonpayable"},{"type":"receive","stateMutability":"payable"},{"type":"function","name":"coverDebt","inputs":[],"outputs":[],"stateMutability":"nonpayable"},{"type":"function","name":"pay","inputs":[{"name":"amount","type":"uint256","internalType":"uint256"}],"outputs":[],"stateMutability":"nonpayable"},{"type":"function","name":"react","inputs":[{"name":"log","type":"tuple","internalType":"struct IReactive.LogRecord","components":[{"name":"chain_id","type":"uint256","internalType":"uint256"},{"name":"_contract","type":"address","internalType":"address"},{"name":"topic_0","type":"uint256","internalType":"uint256"},{"name":"topic_1","type":"uint256","internalType":"uint256"},{"name":"topic_2","type":"uint256","internalType":"uint256"},{"name":"topic_3","type":"uint256","internalType":"uint256"},{"name":"data","type":"bytes","internalType":"bytes"},{"name":"block_number","type":"uint256","internalType":"uint256"},{"name":"op_code","type":"uint256","internalType":"uint256"},{"name":"block_hash","type":"uint256","internalType":"uint256"},{"name":"tx_hash","type":"uint256","internalType":"uint256"},{"name":"log_index","type":"uint256","internalType":"uint256"}]}],"outputs":[],"stateMutability":"nonpayable"},{"type":"event","name":"Callback","inputs":[{"name":"chain_id","type":"uint256","indexed":true,"internalType":"uint256"},{"name":"_contract","type":"address","indexed":true,"internalType":"address"},{"name":"gas_limit","type":"uint64","indexed":true,"internalType":"uint64"},{"name":"payload","type":"bytes","indexed":false,"internalType":"bytes"}],"anonymous":false},{"type":"event","name":"SubscriptionStatus","inputs":[{"name":"success","type":"bool","indexed":false,"internalType":"bool"}],"anonymous":false}],"bytecode":{"object":"0x60c060405234801561000f575f5ffd5b506040516107ae3803806107ae83398101604081905261002e916101de565b600280545f80546001600160a01b03191662ffffff908117825590819052600160208190527f82ea04094b91fdbcc6bc700815069948943553fb456ac308389bf83006127735805460ff191690911790553b156001600160a81b03199091161763ffffff001790556001600160a01b03808316608052811660a05260025460ff166101bc576002546040516305a6aced60e41b815262aa36a760048201526001600160a01b0384811660248301527f52d1932b2d8d6a97999f213ba0781cd05860c8ce4b35baf9b72ce2c17c10184860448301527fa65f96fc951c35ead38878e0f0b7a3c744a6f5ccc1476b313353ce31712313ad606483018190526084830181905260a483015261010090920490911690635a6aced09060c4015f604051808303815f87803b158015610160575f5ffd5b505af1925050508015610171575060015b61019a576040515f81525f51602061078e5f395f51905f529060200160405180910390a16101bc565b604051600181525f51602061078e5f395f51905f529060200160405180910390a15b505061020f565b80516001600160a01b03811681146101d9575f5ffd5b919050565b5f5f604083850312156101ef575f5ffd5b6101f8836101c3565b9150610206602084016101c3565b90509250929050565b60805160a05161055e6102305f395f61020d01525f610121015261055e5ff3fe608060405260043610610036575f3560e01c80630d152c2c146100415780637a90b99014610062578063c290d69114610076575f5ffd5b3661003d57005b5f5ffd5b34801561004c575f5ffd5b5061006061005b36600461044a565b610095565b005b34801561006d575f5ffd5b5061006061026c565b348015610081575f5ffd5b50610060610090366004610489565b6102f1565b60025460ff166100d65760405162461bcd60e51b8152602060048201526007602482015266564d206f6e6c7960c81b60448201526064015b60405180910390fd5b803562aa36a7146101175760405162461bcd60e51b815260206004820152600b60248201526a2bb937b7339031b430b4b760a91b60448201526064016100cd565b6001600160a01b037f00000000000000000000000000000000000000000000000000000000000000001661015160408301602084016104a0565b6001600160a01b0316146101985760405162461bcd60e51b815260206004820152600e60248201526d15dc9bdb99c818dbdb9d1c9858dd60921b60448201526064016100cd565b6040515f602482018190526001600160a01b03606084013581166044840152608084013516606483015260a083013560848301529060a40160408051601f198184030181529181526020820180516001600160e01b0316631970784560e01b17905251909150622dc6c0906001600160a01b037f0000000000000000000000000000000000000000000000000000000000000000169062512578907f8dd725fa9d6cd150017ab9e60318d40616439424e2fade9c1c58854950917dfc906102609086906104c6565b60405180910390a45050565b5f80546040516326db15bb60e21b81523060048201526001600160a01b0390911690639b6c56ec90602401602060405180830381865afa1580156102b2573d5f5f3e3d5ffd5b505050506040513d601f19601f820116820180604052508101906102d691906104fb565b5f549091506102ee906001600160a01b03168261034e565b50565b335f9081526001602052604090205460ff166103485760405162461bcd60e51b8152602060048201526016602482015275417574686f72697a65642073656e646572206f6e6c7960501b60448201526064016100cd565b6102ee33825b804710156103935760405162461bcd60e51b8152602060048201526012602482015271496e73756666696369656e742066756e647360701b60448201526064016100cd565b801561044657604080515f808252602082019092526001600160a01b0384169083906040516103c29190610512565b5f6040518083038185875af1925050503d805f81146103fc576040519150601f19603f3d011682016040523d82523d5f602084013e610401565b606091505b50509050806104445760405162461bcd60e51b815260206004820152600f60248201526e151c985b9cd9995c8819985a5b1959608a1b60448201526064016100cd565b505b5050565b5f6020828403121561045a575f5ffd5b813567ffffffffffffffff811115610470575f5ffd5b82016101808185031215610482575f5ffd5b9392505050565b5f60208284031215610499575f5ffd5b5035919050565b5f602082840312156104b0575f5ffd5b81356001600160a01b0381168114610482575f5ffd5b602081525f82518060208401528060208501604085015e5f604082850101526040601f19601f83011684010191505092915050565b5f6020828403121561050b575f5ffd5b5051919050565b5f82518060208501845e5f92019182525091905056fea2646970667358221220f13c77af8bee47fdbe5560c6975c3d6b056910196a75feeb0faabfa85236db5d64736f6c634300081b003383cba67e8dead1553e411030d0cfd9f3cc7ee38c8ac929042d197bbf118fa6bf","linkReferences":{}},"methodIdentifiers":{"coverDebt()":"7a90b990","pay(uint256)":"c290d691","react((uint256,address,uint256,uint256,uint256,uint256,bytes,uint256,uint256,uint256,uint256,uint256))":"0d152c2c"},"id":7}