{"abi":[{"type":"constructor","inputs":[{"name":"_service","type":"address","internalType":"address"},{"name":"_contract","type":"address","internalType":"address"},{"name":"callback","type":"address","internalType":"address"}],"stateMutability":"nonpayable"},{"type":"receive","stateMutability":"payable"},{"type":"function","name":"coverDebt","inputs":[],"outputs":[],"stateMutability":"nonpayable"},{"type":"function","name":"pay","inputs":[{"name":"amount","type":"uint256","internalType":"uint256"}],"outputs":[],"stateMutability":"nonpayable"},{"type":"function","name":"pretendVm","inputs":[],"outputs":[],"stateMutability":"nonpayable"},{"type":"function","name":"react","inputs":[{"name":"log","type":"tuple","internalType":"struct IReactive.LogRecord","components":[{"name":"chain_id","type":"uint256","internalType":"uint256"},{"name":"_contract","type":"address","internalType":"address"},{"name":"topic_0","type":"uint256","internalType":"uint256"},{"name":"topic_1","type":"uint256","internalType":"uint256"},{"name":"topic_2","type":"uint256","internalType":"uint256"},{"name":"topic_3","type":"uint256","internalType":"uint256"},{"name":"data","type":"bytes","internalType":"bytes"},{"name":"block_number","type":"uint256","internalType":"uint256"},{"name":"op_code","type":"uint256","internalType":"uint256"},{"name":"block_hash","type":"uint256","internalType":"uint256"},{"name":"tx_hash","type":"uint256","internalType":"uint256"},{"name":"log_index","type":"uint256","internalType":"uint256"}]}],"outputs":[],"stateMutability":"nonpayable"},{"type":"function","name":"subscribe","inputs":[{"name":"_contract","type":"address","internalType":"address"}],"outputs":[],"stateMutability":"nonpayable"},{"type":"function","name":"unsubscribe","inputs":[{"name":"_contract","type":"address","internalType":"address"}],"outputs":[],"stateMutability":"nonpayable"},{"type":"event","name":"Callback","inputs":[{"name":"chain_id","type":"uint256","indexed":true,"internalType":"uint256"},{"name":"_contract","type":"address","indexed":true,"internalType":"address"},{"name":"gas_limit","type":"uint64","indexed":true,"internalType":"uint64"},{"name":"payload","type":"bytes","indexed":false,"internalType":"bytes"}],"anonymous":false}],"bytecode":{"object":"0x608060405234801561000f575f5ffd5b506040516108cc3803806108cc83398101604081905261002e91610209565b600280545f80546001600160a01b03191662ffffff908117825590819052600160208190527f82ea04094b91fdbcc6bc700815069948943553fb456ac308389bf83006127735805460ff191690911790553b156001600160a81b03199091161763ffffff0017905560028054610100600160a81b0319166101006001600160a01b03868116820292909217928390556040805162aa36a7602482015286841660448201527f52d1932b2d8d6a97999f213ba0781cd05860c8ce4b35baf9b72ce2c17c10184860648201527fa65f96fc951c35ead38878e0f0b7a3c744a6f5ccc1476b313353ce31712313ad6084820181905260a4820181905260c4808301919091528251808303909101815260e490910182526020810180516001600160e01b03166305a6aced60e41b179052905190935f9392900490911690610173908490610249565b5f604051808303815f865af19150503d805f81146101ac576040519150601f19603f3d011682016040523d82523d5f602084013e6101b1565b606091505b50506002805460ff191691159190911790555050600380546001600160a01b039092166001600160a01b03199092169190911790555061025f9050565b80516001600160a01b0381168114610204575f5ffd5b919050565b5f5f5f6060848603121561021b575f5ffd5b610224846101ee565b9250610232602085016101ee565b9150610240604085016101ee565b90509250925092565b5f82518060208501845e5f920191825250919050565b6106608061026c5f395ff3fe608060405260043610610057575f3560e01c80630d152c2c146100625780633bd41c921461008357806341a7726a146100a15780637262561c146100c05780637a90b990146100df578063c290d691146100f3575f5ffd5b3661005e57005b5f5ffd5b34801561006d575f5ffd5b5061008161007c36600461054c565b610112565b005b34801561008e575f5ffd5b506100816002805460ff19166001179055565b3480156100ac575f5ffd5b506100816100bb36600461058b565b61020c565b3480156100cb575f5ffd5b506100816100da36600461058b565b6102d3565b3480156100ea575f5ffd5b5061008161036e565b3480156100fe575f5ffd5b5061008161010d3660046105b1565b6103f3565b60025460ff166101535760405162461bcd60e51b8152602060048201526007602482015266564d206f6e6c7960c81b60448201526064015b60405180910390fd5b6040515f602482018190526001600160a01b03608084013581166044840152606084013516606483015260a083013560848301529060a40160408051601f198184030181529181526020820180516001600160e01b0316631970784560e01b1790526003549051919250620f4240916001600160a01b039091169062512578907f8dd725fa9d6cd150017ab9e60318d40616439424e2fade9c1c58854950917dfc906102009086906105c8565b60405180910390a45050565b6002546040516305a6aced60e41b815262aa36a760048201526001600160a01b0383811660248301527f52d1932b2d8d6a97999f213ba0781cd05860c8ce4b35baf9b72ce2c17c10184860448301527fa65f96fc951c35ead38878e0f0b7a3c744a6f5ccc1476b313353ce31712313ad606483018190526084830181905260a483015261010090920490911690635a6aced09060c4015b5f604051808303815f87803b1580156102ba575f5ffd5b505af11580156102cc573d5f5f3e3d5ffd5b5050505050565b6002546040516317c0399b60e11b815262aa36a760048201526001600160a01b0383811660248301527f52d1932b2d8d6a97999f213ba0781cd05860c8ce4b35baf9b72ce2c17c10184860448301527fa65f96fc951c35ead38878e0f0b7a3c744a6f5ccc1476b313353ce31712313ad606483018190526084830181905260a483015261010090920490911690632f8073369060c4016102a3565b5f80546040516326db15bb60e21b81523060048201526001600160a01b0390911690639b6c56ec90602401602060405180830381865afa1580156103b4573d5f5f3e3d5ffd5b505050506040513d601f19601f820116820180604052508101906103d891906105fd565b5f549091506103f0906001600160a01b031682610450565b50565b335f9081526001602052604090205460ff1661044a5760405162461bcd60e51b8152602060048201526016602482015275417574686f72697a65642073656e646572206f6e6c7960501b604482015260640161014a565b6103f033825b804710156104955760405162461bcd60e51b8152602060048201526012602482015271496e73756666696369656e742066756e647360701b604482015260640161014a565b801561054857604080515f808252602082019092526001600160a01b0384169083906040516104c49190610614565b5f6040518083038185875af1925050503d805f81146104fe576040519150601f19603f3d011682016040523d82523d5f602084013e610503565b606091505b50509050806105465760405162461bcd60e51b815260206004820152600f60248201526e151c985b9cd9995c8819985a5b1959608a1b604482015260640161014a565b505b5050565b5f6020828403121561055c575f5ffd5b813567ffffffffffffffff811115610572575f5ffd5b82016101808185031215610584575f5ffd5b9392505050565b5f6020828403121561059b575f5ffd5b81356001600160a01b0381168114610584575f5ffd5b5f602082840312156105c1575f5ffd5b5035919050565b602081525f82518060208401528060208501604085015e5f604082850101526040601f19601f83011684010191505092915050565b5f6020828403121561060d575f5ffd5b5051919050565b5f82518060208501845e5f92019182525091905056fea2646970667358221220926ad720320e7a42d561d77970a9f48ac0291788af29f38ac1bee9c0809f46c364736f6c634300081b0033","linkReferences":{}},"methodIdentifiers":{"coverDebt()":"7a90b990","pay(uint256)":"c290d691","pretendVm()":"3bd41c92","react((uint256,address,uint256,uint256,uint256,uint256,bytes,uint256,uint256,uint256,uint256,uint256))":"0d152c2c","subscribe(address)":"41a7726a","unsubscribe(address)":"7262561c"},"id":7}