{"abi":[{"type":"constructor","inputs":[],"stateMutability":"nonpayable"},{"type":"receive","stateMutability":"payable"},{"type":"function","name":"coverDebt","inputs":[],"outputs":[],"stateMutability":"nonpayable"},{"type":"function","name":"pause","inputs":[],"outputs":[],"stateMutability":"nonpayable"},{"type":"function","name":"pay","inputs":[{"name":"amount","type":"uint256","internalType":"uint256"}],"outputs":[],"stateMutability":"nonpayable"},{"type":"function","name":"react","inputs":[{"name":"","type":"uint256","internalType":"uint256"},{"name":"","type":"address","internalType":"address"},{"name":"topic_0","type":"uint256","internalType":"uint256"},{"name":"topic_1","type":"uint256","internalType":"uint256"},{"name":"topic_2","type":"uint256","internalType":"uint256"},{"name":"topic_3","type":"uint256","internalType":"uint256"},{"name":"","type":"bytes","internalType":"bytes"},{"name":"","type":"uint256","internalType":"uint256"},{"name":"","type":"uint256","internalType":"uint256"}],"outputs":[],"stateMutability":"nonpayable"},{"type":"function","name":"resume","inputs":[],"outputs":[],"stateMutability":"nonpayable"},{"type":"event","name":"Callback","inputs":[{"name":"chain_id","type":"uint256","indexed":true,"internalType":"uint256"},{"name":"_contract","type":"address","indexed":true,"internalType":"address"},{"name":"gas_limit","type":"uint64","indexed":true,"internalType":"uint64"},{"name":"payload","type":"bytes","indexed":false,"internalType":"bytes"}],"anonymous":false}],"bytecode":{"object":"0x608060405234801561000f575f5ffd5b506001805462ffffff6001600160a01b031991821681179092555f80549091169091178155600280546001600160a81b0319163360ff60a01b191617905560405162aa36a7602482015273be90d22f0ddc740e60101ddf02a8a396d09733d260448201527f52d1932b2d8d6a97999f213ba0781cd05860c8ce4b35baf9b72ce2c17c10184860648201527fa65f96fc951c35ead38878e0f0b7a3c744a6f5ccc1476b313353ce31712313ad6084820181905260a4820181905260c482015260e40160408051601f198184030181529181526020820180516001600160e01b03166305a6aced60e41b17905260015490519192505f916001600160a01b039091169061011b90849061017b565b5f604051808303815f865af19150503d805f8114610154576040519150601f19603f3d011682016040523d82523d5f602084013e610159565b606091505b50505f805460ff60a01b19169115600160a01b02919091179055506101919050565b5f82518060208501845e5f920191825250919050565b610ad78061019e5f395ff3fe60806040526004361061004c575f3560e01c8063046f7da2146100575780634190e48f1461006d5780637a90b9901461008c5780638456cb59146100a0578063c290d691146100b4575f5ffd5b3661005357005b5f5ffd5b348015610062575f5ffd5b5061006b6100d3565b005b348015610078575f5ffd5b5061006b61008736600461091e565b6102de565b348015610097575f5ffd5b5061006b6103c3565b3480156100ab575f5ffd5b5061006b610448565b3480156100bf575f5ffd5b5061006b6100ce3660046109f0565b610659565b6002546001600160a01b031633146101215760405162461bcd60e51b815260206004820152600c60248201526b155b985d5d1a1bdc9a5e995960a21b60448201526064015b60405180910390fd5b600254600160a01b900460ff166101675760405162461bcd60e51b815260206004820152600a602482015269139bdd081c185d5cd95960b21b6044820152606401610118565b5f6101706106c8565b90505f5b815181146102cd5760015482516001600160a01b0390911690635a6aced0908490849081106101a5576101a5610a07565b60200260200101515f01518484815181106101c2576101c2610a07565b6020026020010151602001518585815181106101e0576101e0610a07565b6020026020010151604001518686815181106101fe576101fe610a07565b60200260200101516060015187878151811061021c5761021c610a07565b60200260200101516080015188888151811061023a5761023a610a07565b602090810291909101015160a001516040516001600160e01b031960e089901b16815260048101969096526001600160a01b03909416602486015260448501929092526064840152608483015260a482015260c4015f604051808303815f87803b1580156102a6575f5ffd5b505af11580156102b8573d5f5f3e3d5ffd5b50505050806102c690610a1b565b9050610174565b50506002805460ff60a01b19169055565b877f52d1932b2d8d6a97999f213ba0781cd05860c8ce4b35baf9b72ce2c17c101848036103b7576040515f602482018190526001600160a01b03808916604484015289166064830152608482018790529060a40160408051601f198184030181529181526020820180516001600160e01b0316631970784560e01b17905251909150620f4240907345008737c677b5251f65835ad9a3fb14750a28569062512578907f8dd725fa9d6cd150017ab9e60318d40616439424e2fade9c1c58854950917dfc906103ad908690610a3f565b60405180910390a4505b50505050505050505050565b5f80546040516326db15bb60e21b81523060048201526001600160a01b0390911690639b6c56ec90602401602060405180830381865afa158015610409573d5f5f3e3d5ffd5b505050506040513d601f19601f8201168201806040525081019061042d9190610a74565b5f54909150610445906001600160a01b031682610822565b50565b6002546001600160a01b031633146104915760405162461bcd60e51b815260206004820152600c60248201526b155b985d5d1a1bdc9a5e995960a21b6044820152606401610118565b600254600160a01b900460ff16156104dc5760405162461bcd60e51b815260206004820152600e60248201526d105b1c9958591e481c185d5cd95960921b6044820152606401610118565b5f6104e56106c8565b90505f5b815181146106425760015482516001600160a01b0390911690632f8073369084908490811061051a5761051a610a07565b60200260200101515f015184848151811061053757610537610a07565b60200260200101516020015185858151811061055557610555610a07565b60200260200101516040015186868151811061057357610573610a07565b60200260200101516060015187878151811061059157610591610a07565b6020026020010151608001518888815181106105af576105af610a07565b602090810291909101015160a001516040516001600160e01b031960e089901b16815260048101969096526001600160a01b03909416602486015260448501929092526064840152608483015260a482015260c4015f604051808303815f87803b15801561061b575f5ffd5b505af115801561062d573d5f5f3e3d5ffd5b505050508061063b90610a1b565b90506104e9565b50506002805460ff60a01b1916600160a01b179055565b5f546001600160a01b0316158061067957505f546001600160a01b031633145b6106be5760405162461bcd60e51b8152602060048201526016602482015275417574686f72697a65642073656e646572206f6e6c7960501b6044820152606401610118565b6104453382610822565b6040805160018082528183019092526060915f9190816020015b61071e6040518060c001604052805f81526020015f6001600160a01b031681526020015f81526020015f81526020015f81526020015f81525090565b8152602001906001900390816106e25790505090506040518060c0016040528062aa36a7815260200173be90d22f0ddc740e60101ddf02a8a396d09733d26001600160a01b031681526020017f52d1932b2d8d6a97999f213ba0781cd05860c8ce4b35baf9b72ce2c17c10184881526020017fa65f96fc951c35ead38878e0f0b7a3c744a6f5ccc1476b313353ce31712313ad81526020017fa65f96fc951c35ead38878e0f0b7a3c744a6f5ccc1476b313353ce31712313ad81526020017fa65f96fc951c35ead38878e0f0b7a3c744a6f5ccc1476b313353ce31712313ad815250815f8151811061081257610812610a07565b6020908102919091010152919050565b804710156108675760405162461bcd60e51b8152602060048201526012602482015271496e73756666696369656e742066756e647360701b6044820152606401610118565b801561091a57604080515f808252602082019092526001600160a01b0384169083906040516108969190610a8b565b5f6040518083038185875af1925050503d805f81146108d0576040519150601f19603f3d011682016040523d82523d5f602084013e6108d5565b606091505b50509050806109185760405162461bcd60e51b815260206004820152600f60248201526e151c985b9cd9995c8819985a5b1959608a1b6044820152606401610118565b505b5050565b5f5f5f5f5f5f5f5f5f5f6101208b8d031215610938575f5ffd5b8a35995060208b01356001600160a01b0381168114610955575f5ffd5b985060408b0135975060608b0135965060808b0135955060a08b0135945060c08b013567ffffffffffffffff81111561098c575f5ffd5b8b015f80601f83018f1361099e575f5ffd5b50813567ffffffffffffffff8111156109b5575f5ffd5b6020830191508e60208285010111156109cc575f5ffd5b9b9e9a9d50989b979a969995989760e0810135966101009091013595509350505050565b5f60208284031215610a00575f5ffd5b5035919050565b634e487b7160e01b5f52603260045260245ffd5b5f60018201610a3857634e487b7160e01b5f52601160045260245ffd5b5060010190565b602081525f82518060208401528060208501604085015e5f604082850101526040601f19601f83011684010191505092915050565b5f60208284031215610a84575f5ffd5b5051919050565b5f82518060208501845e5f92019182525091905056fea264697066735822122081013527287d7cc932f4a3d4c95178e9f15fb51b576d0fab9f281752dd5d418764736f6c634300081b0033","linkReferences":{}},"methodIdentifiers":{"coverDebt()":"7a90b990","pause()":"8456cb59","pay(uint256)":"c290d691","react(uint256,address,uint256,uint256,uint256,uint256,bytes,uint256,uint256)":"4190e48f","resume()":"046f7da2"},"id":0}