{"abi":[{"type":"constructor","inputs":[{"name":"originContract","type":"address","internalType":"address"},{"name":"destinationContract_","type":"address","internalType":"address"}],"stateMutability":"nonpayable"},{"type":"receive","stateMutability":"payable"},{"type":"function","name":"coverDebt","inputs":[],"outputs":[],"stateMutability":"nonpayable"},{"type":"function","name":"destinationContract","inputs":[],"outputs":[{"name":"","type":"address","internalType":"address"}],"stateMutability":"view"},{"type":"function","name":"pay","inputs":[{"name":"amount","type":"uint256","internalType":"uint256"}],"outputs":[],"stateMutability":"nonpayable"},{"type":"function","name":"react","inputs":[{"name":"log","type":"tuple","internalType":"struct IReactive.LogRecord","components":[{"name":"chain_id","type":"uint256","internalType":"uint256"},{"name":"_contract","type":"address","internalType":"address"},{"name":"topic_0","type":"uint256","internalType":"uint256"},{"name":"topic_1","type":"uint256","internalType":"uint256"},{"name":"topic_2","type":"uint256","internalType":"uint256"},{"name":"topic_3","type":"uint256","internalType":"uint256"},{"name":"data","type":"bytes","internalType":"bytes"},{"name":"block_number","type":"uint256","internalType":"uint256"},{"name":"op_code","type":"uint256","internalType":"uint256"},{"name":"block_hash","type":"uint256","internalType":"uint256"},{"name":"tx_hash","type":"uint256","internalType":"uint256"},{"name":"log_index","type":"uint256","internalType":"uint256"}]}],"outputs":[],"stateMutability":"nonpayable"},{"type":"event","name":"BridgeInitiated","inputs":[{"name":"from","type":"address","indexed":true,"internalType":"address"},{"name":"to","type":"address","indexed":true,"internalType":"address"},{"name":"amount","type":"uint256","indexed":false,"internalType":"uint256"}],"anonymous":false},{"type":"event","name":"Callback","inputs":[{"name":"chain_id","type":"uint256","indexed":true,"internalType":"uint256"},{"name":"_contract","type":"address","indexed":true,"internalType":"address"},{"name":"gas_limit","type":"uint64","indexed":true,"internalType":"uint64"},{"name":"payload","type":"bytes","indexed":false,"internalType":"bytes"}],"anonymous":false},{"type":"event","name":"SubscriptionCreated","inputs":[{"name":"originContract","type":"address","indexed":true,"internalType":"address"},{"name":"success","type":"bool","indexed":false,"internalType":"bool"}],"anonymous":false}],"bytecode":{"object":"0x60a060405234801561000f575f5ffd5b5060405161091238038061091283398101604081905261002e916102cd565b600280545f80546001600160a01b03191662ffffff908117825590819052600160208190527f82ea04094b91fdbcc6bc700815069948943553fb456ac308389bf83006127735805460ff191690911790553b156001600160a81b03199091161763ffffff001790556001600160a01b0382166100f15760405162461bcd60e51b815260206004820152601760248201527f496e76616c6964206f726967696e20636f6e747261637400000000000000000060448201526064015b60405180910390fd5b6001600160a01b0381166101475760405162461bcd60e51b815260206004820152601c60248201527f496e76616c69642064657374696e6174696f6e20636f6e74726163740000000060448201526064016100e8565b6001600160a01b0381811660805260405162aa36a7602482015290831660448201527f52d1932b2d8d6a97999f213ba0781cd05860c8ce4b35baf9b72ce2c17c101848606482018190527fa65f96fc951c35ead38878e0f0b7a3c744a6f5ccc1476b313353ce31712313ad6084830181905260a4830181905260c4830152905f9060e40160408051601f198184030181529181526020820180516001600160e01b03166305a6aced60e41b179052519091505f9062ffffff9061020b9084906102fe565b5f604051808303815f865af19150503d805f8114610244576040519150601f19603f3d011682016040523d82523d5f602084013e610249565b606091505b50509050846001600160a01b03167f05bcf37b8dd27abc6e04e804213b372c11720cf87c43f0eaf36645d6d39cbba08260405161028a911515815260200190565b60405180910390a26102a86002805460ff191662ffffff3b15179055565b5050505050610314565b80516001600160a01b03811681146102c8575f5ffd5b919050565b5f5f604083850312156102de575f5ffd5b6102e7836102b2565b91506102f5602084016102b2565b90509250929050565b5f82518060208501845e5f920191825250919050565b6080516105e06103325f395f8181607e01526102aa01526105e05ff3fe608060405260043610610041575f3560e01c80630d152c2c1461004c57806375bd68631461006d5780637a90b990146100bc578063c290d691146100d0575f5ffd5b3661004857005b5f5ffd5b348015610057575f5ffd5b5061006b6100663660046104f2565b6100ef565b005b348015610078575f5ffd5b506100a07f000000000000000000000000000000000000000000000000000000000000000081565b6040516001600160a01b03909116815260200160405180910390f35b3480156100c7575f5ffd5b5061006b610314565b3480156100db575f5ffd5b5061006b6100ea366004610531565b610399565b335f9081526001602052604090205460ff1661014b5760405162461bcd60e51b8152602060048201526016602482015275417574686f72697a65642073656e646572206f6e6c7960501b60448201526064015b60405180910390fd5b803562aa36a7146101915760405162461bcd60e51b815260206004820152601060248201526f125b9d985b1a590818da185a5b88125160821b6044820152606401610142565b6060810135158015906101a75750608081013515155b6101e45760405162461bcd60e51b815260206004820152600e60248201526d496e76616c696420746f7069637360901b6044820152606401610142565b6040515f6024820181905260608301356001600160a01b0381811660448501526080850135908116606485015260a085013560848501819052919390929060a40160408051601f198184030181529181526020820180516001600160e01b0316631970784560e01b179052519091506001600160a01b0380851691908616907f2d2927655ab697dbc92385d4f7aade44509715e39c4f903c4239c1648c4e6138906102929086815260200190565b60405180910390a3620493e067ffffffffffffffff167f00000000000000000000000000000000000000000000000000000000000000006001600160a01b0316625125787f8dd725fa9d6cd150017ab9e60318d40616439424e2fade9c1c58854950917dfc846040516103059190610548565b60405180910390a45050505050565b5f80546040516326db15bb60e21b81523060048201526001600160a01b0390911690639b6c56ec90602401602060405180830381865afa15801561035a573d5f5f3e3d5ffd5b505050506040513d601f19601f8201168201806040525081019061037e919061057d565b5f54909150610396906001600160a01b0316826103f6565b50565b335f9081526001602052604090205460ff166103f05760405162461bcd60e51b8152602060048201526016602482015275417574686f72697a65642073656e646572206f6e6c7960501b6044820152606401610142565b61039633825b8047101561043b5760405162461bcd60e51b8152602060048201526012602482015271496e73756666696369656e742066756e647360701b6044820152606401610142565b80156104ee57604080515f808252602082019092526001600160a01b03841690839060405161046a9190610594565b5f6040518083038185875af1925050503d805f81146104a4576040519150601f19603f3d011682016040523d82523d5f602084013e6104a9565b606091505b50509050806104ec5760405162461bcd60e51b815260206004820152600f60248201526e151c985b9cd9995c8819985a5b1959608a1b6044820152606401610142565b505b5050565b5f60208284031215610502575f5ffd5b813567ffffffffffffffff811115610518575f5ffd5b8201610180818503121561052a575f5ffd5b9392505050565b5f60208284031215610541575f5ffd5b5035919050565b602081525f82518060208401528060208501604085015e5f604082850101526040601f19601f83011684010191505092915050565b5f6020828403121561058d575f5ffd5b5051919050565b5f82518060208501845e5f92019182525091905056fea26469706673582212209edd72e75551f3ddcef455ad0935bd62c9f89a94723c3d843998c9a2b905872264736f6c634300081b0033","linkReferences":{}},"methodIdentifiers":{"coverDebt()":"7a90b990","destinationContract()":"75bd6863","pay(uint256)":"c290d691","react((uint256,address,uint256,uint256,uint256,uint256,bytes,uint256,uint256,uint256,uint256,uint256))":"0d152c2c"},"id":7}